:100000000C9449000C9466000C9466000C946600F5
:100010000C941C020C9424030C9466000C9466004F
:100020000C9466000C9466000C9466000C946600B8
:100030000C9466000C9466000C9466000C946600A8
:100040000C9466000C9466000C9466000C94660098
:100050000C9466000C9466000C9466000C94660088
:100060000C9466000C94660055563A200048756D55
:1000700069646974793A200054656D7065726174C1
:100080007572653A20004D6F6973747572653A2018
:10009000000011241FBECFEFD8E0DEBFCDBF11E0BE
:1000A000A0E0B1E0EAE1F7E102C005900D92AA39C3
:1000B000B107D9F721E0AAE9B1E001C01D92A93E3C
:1000C000B207E1F70E9422060C948B0B0C940000FF
:1000D0009BB19F709BB99BB1807F892B8BB985B1F8
:1000E000837F85B92A9A2A9A2A980895CF93C82F90
:1000F0000E9468008C2F8295807FCF910C946800BD
:100100002C980E94760086E69EE00197F1F70000A9
:100110000895843048F4E82FF0E0EF58FE4F8081D6
:10012000860F80680C94800080E3FACF2C9A0E949E
:10013000760086E69EE00197F1F700000895CF93E0
:10014000DF93EC01FE0184912196811103C0DF91C0
:10015000CF9108950E949600F5CFCF93DF93EC01E5
:100160008991811103C0DF91CF9108950E9496007B
:10017000CE01F5CF8AB1806F8AB984B18C6184B920
:100180002C988FEF9BE60197F1F700C0000080E309
:100190000E9468008FEF93E20197F1F700C0000022
:1001A00080E30E9468008DED90E00197F1F780E315
:1001B0000E94680086E69EE00197F1F7000080E269
:1001C0000E94680086E69EE00197F1F7000088E251
:1001D0000E9480008FE00C9480000E94BA0081E0B1
:1001E0000E9480008CE00E94800060E080E00E941D
:1001F000890086E890E00E949F0060E081E00E9414
:10020000890088E790E00E949F0060E082E00E9401
:1002100089008DE690E00E949F0060E083E00E94EC
:10022000890088E690E00C949F0086E69EE00197A6
:10023000F1F700000895299A2FEF8FE796E12150FA
:1002400080409040E1F700C0000080917A00806C0F
:1002500080937A0080917A00807CE1F78091790028
:10026000299890E008950F931F93CF93DF930F92F7
:10027000CDB7DEB789838B018981811132C08FEFC1
:1002800097E40197F1F700C00000FB0180818B30FB
:1002900028F58AE080836FE081E00E948900F80100
:1002A00080811F928F9385E791E09F938F931F9298
:1002B00084E08F9387EB91E09F938F930E94920845
:1002C0000FB6F894DEBF0FBECDBF87EB91E00F9065
:1002D000DF91CF911F910F910C94AD0080818A50D6
:1002E000D9CF8FEF97E40197F1F700C00000FB0131
:1002F0008081883710F088E7CDCF8081865FCACFB4
:100300000F931F93CF93DF930F92CDB7DEB78983FF
:100310008B018981811148C08FEF97E40197F1F734
:1003200000C00000FB01808181113AC010826AE0A8
:1003300080E00E94890089E791E00E94AD006AE0B8
:1003400080E00E948900F80180818531E0F580918C
:100350000001909101010E94AD0061E180E00E94E6
:100360008900F80180811F928F9385E791E09F9328
:100370008F931F9284E08F9387EB91E09F938F93ED
:100380000E9492080FB6F894DEBF0FBECDBF87EB78
:1003900091E00F90DF91CF911F910F910C94AD00E0
:1003A00080818A508083C3CF8FEF97E40197F1F764
:1003B00000C00000FB018081883710F088E7F2CF91
:1003C0008081865FEFCF8081893228F4809102019D
:1003D00090910301C0CF80818D3328F48091040176
:1003E00090910501B8CF8081813528F48091060174
:1003F00090910701B0CF80818536C0F380910801CC
:1004000090910901A8CF05966AE070E00E94CC06A1
:100410006150710908F4089588E18A95F1F700C0E8
:10042000F7CF83E084B915B8399882E680937C00D1
:1004300087E880937A0008951F921FB61F921124B7
:100440008F939F9389B18093A00186B180939F0180
:100450008091A00188708093A80180919F01827093
:100460008093AE0180919F0181708093AB01809158
:10047000A00184708093A5019091A8018091120140
:10048000981306C09091AE0180911101981711F157
:1004900080911401813009F051C09091A8019923F5
:1004A00029F092E0909314018093A3018091AE0112
:1004B000882329F084E0809314011092A301809195
:1004C000A801809312018091AE018093110181E017
:1004D0008093A2019091AB0180911001981306C006
:1004E0009091A50180910F01981711F1809116014B
:1004F000813009F066C09091AB01992329F092E018
:10050000909316018093A4018091A501882329F07E
:1005100084E0809316011092A4018091AB01809336
:1005200010018091A50180930F0181E08093A101CA
:100530009F918F911F901FBE1F901895809114015D
:100540008230A9F48091A801811105C081E08093D7
:1005500014011092A3018091AE01882309F4AFCF5A
:1005600083E08093140181E08093A301A8CF809160
:100570001401833081F48091A801811106C084E0C8
:100580008093140181E08093A3018091AE018111D9
:1005900096CF82E090CF80911401843009F08FCF04
:1005A0008091A801882329F083E0809314011092A0
:1005B000A3018091AE01811182CF81E0809314016B
:1005C000D3CF809116018230A9F48091AB018111C3
:1005D00005C081E0809316011092A4018091A501CD
:1005E000882309F49ACF83E08093160181E08093F9
:1005F000A40193CF80911601833081F48091AB01E7
:10060000811106C084E08093160181E08093A401EB
:100610008091A501811181CF82E07BCF809116016D
:10062000843009F07ACF8091AB01882329F083E0F0
:10063000809316011092A4018091A50181116DCFC4
:1006400081E080931601D3CF1F920F920FB60F92C5
:1006500011242F933F934F935F936F937F938F93C7
:100660009F93AF93BF93EF93FF930E941C02FF9160
:10067000EF91BF91AF919F918F917F916F915F911A
:100680004F913F912F910F900FBE0F901F90189593
:10069000BF92CF92DF92EF92FF920F931F93CF936F
:1006A000DF93B82EFB01D901E7014115510531F463
:1006B0000115110519F490E080E054C084EA80939C
:1006C000BC008091BC0087FFFCCF9091B900987F5F
:1006D000983009F09FC08B2D8E7F8093BB0084E8FB
:1006E0008093BC008091BC0087FFFCCF9091B90043
:1006F000987F9831B1F0903209F08CC088C0808129
:100700008093BB002093BC008091BC0087FFFCCF8E
:100710009091B900987F415050409832C9F4319679
:1007200001C024E84115510551F716C08C91809302
:10073000BB002093BC008091BC0087FFFCCF909150
:10074000B900987F01501040983211F4119605C0FD
:10075000903309F05FC05BC024E80115110531F743
:1007600091E081E0C114D10409F44EC0882311F452
:1007700028E001C020E184EA8093BC008091BC00A5
:1007800087FFFCCF9091B900987F921709F042C083
:1007900081E0B82AB092BB0084E88093BC008091CD
:1007A000BC0087FFFCCF9091B900987F903419F07E
:1007B000983481F52CC00894C108D10824EC11C0EC
:1007C0002093BC008091BC0087FFFCCF9091B900C2
:1007D000987F0894C108D1089035E1F48091BB005E
:1007E0008993C114D10461F784E88093BC0080919F
:1007F000BC0087FFFCCF9091B900987F983551F4E9
:100800008091BB00888302C0992321F090E084E9A5
:100810008093BC00892FDF91CF911F910F91FF90A2
:10082000EF90DF90CF90BF900895CF92DF92EF923C
:10083000FF920F931F93AC019B0180E2BA0141E04C
:1008400050E002E010E0EE24FF24CC24DD240E94DE
:1008500048031092B9008DE18093B8001F910F9169
:10086000FF90EF90DF90CF9008951092B9008093A1
:10087000B8000895AF92BF92CF92DF92EF92FF92AD
:100880000F931F936B017C0183E06AE00E94890053
:10089000C701B6010E9461072DB73EB7285030400E
:1008A0000FB6F8943EBF0FBE2DBF0DB71EB70F5F3A
:1008B0001F4F87EBA82E81E0B82EEDB7FEB7B282AE
:1008C000A18227E131E0F8013383228375836483B9
:1008D000882777FD8095982F0E9499079B01AC018E
:1008E000C701B6010E94F40620E030E543EC57E46E
:1008F0000E9425080E946107F801778366830E94A1
:10090000C2082DB73EB7285F3F4F0FB6F8943EBFE1
:100910000FBE2DBFC5010E94AD001F910F91FF902A
:10092000EF90DF90CF90BF90AF9008952F923F92BD
:100930004F925F926F927F928F929F92AF92BF92EF
:10094000CF92DF92EF92FF920F931F93CF93DF939B
:100950007C01EB01FA018901718160E0208130E0C6
:10096000622B732B80E090E00E9497071B012C0103
:10097000F801718160E0208130E0622B732B80E010
:1009800090E00E9497073B014C01F701718160E004
:10099000208130E0622B732B80E090E00E9497076B
:1009A0007B018C01C201B1012BE734E14EE050EC38
:1009B0000E9425089B01AC01C801B7010E94F50601
:1009C0007B018C01C401B30121E73DE34AEA5FEBFF
:1009D0000E9425089B01AC01C801B7010E94F506E1
:1009E0002CE534ED4EE05AE30E9425085B016C01D2
:1009F000798160E0288130E0622B732B80E090E009
:100A00000E9497077B018C01C201B1012DEC3CECE7
:100A10004CE350EC0E9425089B01AC01C801B701D2
:100A20000E94F5067B018C01C401B30120E030E097
:100A300040EE5FEB0E9425089B01AC01C801B701A5
:100A40000E94F50625E033EB40E25AE30E942508B8
:100A50007B018C01C601B5010E943A04C601B501B3
:100A6000A80197010E94F50620E030E040E05FE336
:100A70000E942508DF91CF911F910F91FF90EF9079
:100A8000DF90CF90BF90AF909F908F907F906F90AE
:100A90005F904F903F902F900895AF92BF92CF926A
:100AA000DF92EF92FF920F931F936B017C0183E023
:100AB0006FE00E948900C701B6010E9461072DB74F
:100AC0003EB7285030400FB6F8943EBF0FBE2DBF42
:100AD0000DB71EB70F5F1F4F97EBA92E91E0B92EF0
:100AE000EDB7FEB7B282A1822FE131E0F801338386
:100AF000228375836483882777FD8095982F0E94D1
:100B000099079B01AC01C701B6010E94F40620E0E1
:100B100030E040E251E40E9425080E946107F8019C
:100B2000778366830E94C2082DB73EB7285F3F4F88
:100B30000FB6F8943EBF0FBE2DBFC5010E94AD0099
:100B40001F910F91FF90EF90DF90CF90BF90AF90EB
:100B50000895AF92BF92CF92DF92EF92FF920F93E0
:100B60001F939C015B0180E2B90141E050E020E06D
:100B700030E000E010E07501E2E0CE2ED12C0E94C2
:100B8000480383E06FE00E9489008DB79EB7089705
:100B90000FB6F8949EBF0FBE8DBFEDB7FEB731966E
:100BA00007EB11E0ADB7BEB712961C930E931197E9
:100BB00034E0C32ED12CD382C28225E2E22E21E082
:100BC000F22EF582E482D5018C91868317820E94F1
:100BD00092088DB79EB708960FB6F8949EBF0FBEC9
:100BE0008DBFC8010E94AD00ADB7BEB718970FB654
:100BF000F894BEBF0FBEADBFEDB7FEB731961296EB
:100C00001C930E931197D382C282F582E482D501A0
:100C100011968C91868317820E9492088DB79EB799
:100C200008960FB6F8949EBF0FBE8DBFC8010E94F4
:100C3000AD001F910F91FF90EF90DF90CF90BF908C
:100C4000AF9008950E9411020E94BA000E94ED0028
:100C50008BB18C608BB988B1836088B98091680052
:100C6000846080936800809168008260809368004F
:100C700080916D008C6080936D0080916C0083602A
:100C800080936C0086B182708093120189B1887064
:100C90008093110189B184708093100186B18170B5
:100CA00080930F0178946CE971E08EE991E00E94E5
:100CB00015048091A201882341F01092A201809135
:100CC000A30163E171E00E9480018091A10188236A
:100CD00041F01092A1018091A40165E171E00E94B0
:100CE000330182E0C82ED12C93EBE92E91E0F92E4E
:100CF00010E000E030E020E041E050E06EE071E024
:100D000080E20E94480329EAE22E21E0F22E30E040
:100D100020E041E050E06DE071E080E20E94480395
:100D200036EAE32E31E0F32E30E020E041E050E0FF
:100D30006CE071E080E20E9448034CEAE42E41E05E
:100D4000F42E30E020E041E050E06BE071E080E222
:100D50000E944803970146EA51E069EA71E083EB9B
:100D600091E00E9496046093AF017093B00180936C
:100D7000B1019093B2010E941B0190939B0180935B
:100D80009A018233910514F4289A93CF893C9105F6
:100D90000CF48FCF28988DCF97FB072E16F4009474
:100DA00007D077FD09D00E94E00607FC05D03EF48D
:100DB000909581959F4F0895709561957F4F089507
:100DC000AA1BBB1B51E107C0AA1FBB1FA617B70771
:100DD00010F0A61BB70B881F991F5A95A9F780958D
:100DE0009095BC01CD0108955058BB27AA270E94B9
:100DF0000C070C94EB070E94DD0738F00E94E40713
:100E000020F039F49F3F19F426F40C94DA070EF41D
:100E1000E095E7FB0C94D407E92F0E94FC0758F3F8
:100E2000BA17620773078407950720F079F4A6F5CF
:100E30000C941E080EF4E0950B2EBA2FA02D0B017A
:100E4000B90190010C01CA01A0011124FF27591B0F
:100E500099F0593F50F4503E68F11A16F040A22F15
:100E6000232F342F4427585FF3CF46953795279586
:100E7000A795F0405395C9F77EF41F16BA0B620B85
:100E8000730B840BBAF09150A1F0FF0FBB1F661FCC
:100E9000771F881FC2F70EC0BA0F621F731F841F0F
:100EA00048F4879577956795B795F7959E3F08F035
:100EB000B0CF9395880F08F09927EE0F97958795F7
:100EC00008950E9468076894B1110C941F08089552
:100ED0000E94040888F09F5798F0B92F9927B751BE
:100EE000B0F0E1F0660F771F881F991F1AF0BA95CE
:100EF000C9F714C0B13091F00E941E08B1E0089506
:100F00000C941E08672F782F8827B85F39F0B93FF7
:100F1000CCF3869577956795B395D9F73EF4909580
:100F20008095709561957F4F8F4F9F4F0895E894FE
:100F300009C097FB3EF490958095709561957F4F21
:100F40008F4F9F4F9923A9F0F92F96E9BB279395CF
:100F5000F695879577956795B795F111F8CFFAF4DF
:100F6000BB0F11F460FF1BC06F5F7F4F8F4F9F4F10
:100F700016C0882311F096E911C0772321F09EE86E
:100F8000872F762F05C0662371F096E8862F70E0D4
:100F900060E02AF09A95660F771F881FDAF7880FAE
:100FA0009695879597F9089597F99F6780E870E07F
:100FB00060E008959FEF80EC089500240A941616CF
:100FC000170618060906089500240A941216130637
:100FD000140605060895092E0394000C11F48823C5
:100FE00052F0BB0F40F4BF2B11F460FF04C06F5FE1
:100FF0007F4F8F4F9F4F089557FD9058440F551FB7
:1010000059F05F3F71F04795880F97FB991F61F08A
:101010009F3F79F087950895121613061406551F01
:10102000F2CF4695F1DF08C0161617061806991F6D
:10103000F1CF86957105610508940895E894BB2762
:1010400066277727CB0197F908950E9438080C94FA
:10105000EB070E94DD0738F00E94E40720F095239B
:1010600011F00C94D4070C94DA0711240C941F0887
:101070000E94FC0770F3959FC1F3950F50E0551F38
:10108000629FF001729FBB27F00DB11D639FAA27DD
:10109000F00DB11DAA1F649F6627B00DA11D661F2C
:1010A000829F2227B00DA11D621F739FB00DA11D4D
:1010B000621F839FA00D611D221F749F3327A00D07
:1010C000611D231F849F600D211D822F762F6A2FA3
:1010D00011249F5750409AF0F1F088234AF0EE0F08
:1010E000FF1FBB1F661F771F881F91505040A9F735
:1010F0009E3F510580F00C94D4070C941F085F3F6D
:10110000E4F3983ED4F3869577956795B795F79570
:10111000E7959F5FC1F7FE2B880F911D96958795E8
:1011200097F90895AEE0B0E0E8E9F8E00C94620BBE
:101130000D891E898F89988D26E02C831A83098357
:1011400097FF02C080E090E801979E838D83AE01F7
:10115000455E5F4F698D7A8DCE0101960E94E5084C
:101160004D815E8157FD0AC02F8138854217530794
:101170000CF49A01020F131FF80110822E96E4E07E
:101180000C947E0BAEE0B0E0E8ECF8E00C94620B5F
:101190000D891E8986E08C831A8309838FEF9FE770
:1011A0009E838D83AE01475E5F4F6F89788DCE0140
:1011B00001960E94E5082F813885020F131FF80160
:1011C00010822E96E4E00C947E0BABE0B0E0EBEEE8
:1011D000F8E00C94540B7C013B018A01FC0117825E
:1011E0001682838181FFB9C19AE0292ECE01019632
:1011F0005C01F7019381F30193FD859193FF819148
:101200003F01882309F446C1853239F493FD859165
:1012100093FF81913F01853229F4B70190E00E944C
:10122000C60AE7CF912C412C512CFFE1F51538F07F
:101230008B3209F188F4803201F1833221F157FCBD
:101240003AC020ED280F2A3040F556FE1FC0929C70
:10125000200D1124922E06C08D3291F0803379F743
:10126000689450F8F30193FD859193FF81913F01BC
:101270008111DBCF20C0689451F8689452F8F2CF06
:10128000689453F8EFCF689454F8ECCF429C200D4B
:101290001124422E689455F8E5CF8E3229F456FC7D
:1012A000F9C0689456F8DECF8C3619F4689457F874
:1012B000D9CF8836B9F2982F9F7D95549330C0F0DE
:1012C0008336A1F18337C1F1833509F05BC0F801A2
:1012D000C190D1908F01692D70E056FC02C06FEF74
:1012E0007FEFC6010E94B00A4C01689457F80AC00B
:1012F0000C5F1F4F2FE3298388248394912C650171
:10130000E89457F853FC04C04814190409F018F580
:10131000342C8114910431F5332009F46ACFB701DC
:1013200080E290E00E94C60A3A94F6CFF8018081EC
:1013300089830E5F1F4FE0CFF801C190D1908F01DC
:10134000692D70E056FC02C06FEF7FEFC6010E946E
:10135000BB0A4C01D5CFB70180E290E00E94C60ADB
:101360004A94D2CFF60157FC859157FE81916F01C7
:10137000B70190E00E94C60A31103A94F1E08F1A4A
:101380009108C7CF843619F0893609F074C0F80186
:1013900057FE6AC061917191819191918F01252DC4
:1013A0002F76D22E97FF09C0909580957095619504
:1013B0007F4F8F4F9F4F6894D7F82AE030E0A50108
:1013C0000E94F60AC82ECA188C2C5D2CD6FE0CC0C2
:1013D000E89450F8C91440F4D4FE05C0D2FC03C010
:1013E000FD2DFE7E5F2E892C54FE8FC0FE01EC0D7C
:1013F000F11D8081803309F081C0252D297E522E78
:10140000852D8870382E53FC8FC050FE89C09C2CCF
:10141000841418F44C0C942C981854FE8BC0B7010B
:1014200080E390E00E94C60A52FE09C088E790E07F
:1014300051FE02C088E590E0B7010E94C60AC914B7
:1014400008F484C0CA94D12C9FEFC91AD90ACA0CD7
:10145000DB1CF60182916F01B70190E00E94C60A81
:10146000AC14BD04B1F758CF61917191072E000CF7
:10147000880B990B93CFD52CE894D4F82AE030E070
:10148000853739F1952D997FD92E8F3601F148F4A2
:101490008835A9F0F701868197812B96E2E10C94BB
:1014A000700B803749F08837A9F7D4FE02C06894E2
:1014B000D2F820E130E00DC06894D4F8F6CF54FEA5
:1014C00003C0E92FE660DE2E20E132E002C028E012
:1014D00030E0F801D7FE0DC0619171918191919139
:1014E0008F01A5010E94F60AC82ECA18E894D7F801
:1014F0006BCF6191719190E080E0F2CF52FC02C01D
:1015000083947ECF839483947BCF852D867809F452
:1015100077CFF6CFB70180E290E00E94C60A8394AD
:101520008414C0F3312C79CF342C3818841408F487
:1015300074CFF8CF852D867809F481CF8BE251FEE8
:1015400080E257FC8DE2B70190E077CFB70180E3EE
:1015500090E00E94C60A9A9472CF8FEF9FEF9DCFC2
:10156000FC010590615070400110D8F7809590956E
:101570008E0F9F1F0895FC01615070400190011073
:10158000D8F7809590958E0F9F1F08950F931F9306
:10159000CF93DF93182F092FEB018B8181FD09C0B9
:1015A0001FEF0FEF812F902FDF91CF911F910F91A0
:1015B000089582FF14C02E813F818C819D81281760
:1015C00039073CF4E881F981CF010196998388833A
:1015D00010838E819F8101969F838E83E3CFE88560
:1015E000F985812F0995892BA1F3DACFFA01AA2772
:1015F000283051F1203181F1E8946F936E7F6E5F56
:101600007F4F8F4F9F4FAF4FB1E03ED0B4E03CD003
:10161000670F781F891F9A1FA11D680F791F8A1FE6
:10162000911DA11D6A0F711D811D911DA11D20D04D
:1016300009F468943F912AE0269F11243019305D07
:101640003193DEF6CF010895462F4770405D4193F8
:10165000B3E00FD0C9F7F6CF462F4F70405D4A3345
:1016600018F0495D31FD4052419302D0A9F7EACF0D
:10167000B4E0A6959795879577956795BA95C9F73C
:1016800000976105710508959B01AC010A2E06942F
:101690005795479537952795BA95C9F7620F731FE8
:1016A000841F951FA01D08952F923F924F925F9225
:1016B0006F927F928F929F92AF92BF92CF92DF9262
:1016C000EF92FF920F931F93CF93DF93CDB7DEB7C7
:1016D000CA1BDB0B0FB6F894DEBF0FBECDBF09945B
:1016E0002A88398848885F846E847D848C849B84B2
:1016F000AA84B984C884DF80EE80FD800C811B81C0
:10170000AA81B981CE0FD11D0FB6F894DEBF0FBEEE
:0A171000CDBFED010895F894FFCF5E
:10171A00830188018C01950190010C0B0A090703CA
:10172A000303033201320125642E3030256400257B
:10173A00642E256400253364000000803F00008089
:10174A003F0000803F0000803F7B140E40713DAA9D
:10175A003FCDCC3C400000E03FF025113BF99E9183
:10176A003A5CD40E3A4D069A39500A1E39DD4E2398
:10177A003B0AD7A33A05B3203A864BAD3927D03175
:10178A0039004014542533640020202020202020D2
:10179A00202000766572792064727900617667008C
:0A17AA00766572792064616D7000AD
:00000001FF
