:100000000C9449000C9466000C9466000C946600F5
:100010000C9466000C9411020C9466000C9466001B
:100020000C9466000C9466000C9466000C946600B8
:100030000C9466000C9466000C9466000C946600A8
:100040000C9466000C9466000C9466000C94660098
:100050000C9466000C9466000C9466000C94660088
:100060000C9466000C94660055563A200048756D55
:1000700069646974793A200054656D7065726174C1
:100080007572653A20004D6F6973747572653A2018
:10009000000011241FBECFEFD8E0DEBFCDBF11E0BE
:1000A000A0E0B1E0E2EAFCE002C005900D92AC33C2
:1000B000B107D9F721E0ACE3B1E001C01D92A9344A
:1000C000B207E1F70E9416030C944F060C9400004F
:1000D0009BB19F709BB99BB1807F892B8BB985B1F8
:1000E000837F85B92A9A2A9A2A980895CF93C82F90
:1000F0000E9468008C2F8295807FCF910C946800BD
:100100002C980E94760086E69EE00197F1F70000A9
:100110000895843048F4E82FF0E0EE5EFE4F8081D1
:10012000860F80680C94800080E3FACF2C9A0E949E
:10013000760086E69EE00197F1F700000895CF93E0
:10014000DF93EC01FE0184912196811103C0DF91C0
:10015000CF9108950E949600F5CFCF93DF93EC01E5
:100160008991811103C0DF91CF9108950E9496007B
:10017000CE01F5CF8AB1806F8AB984B18C6184B920
:100180002C988FEF9BE60197F1F700C0000080E309
:100190000E9468008FEF93E20197F1F700C0000022
:1001A00080E30E9468008DED90E00197F1F780E315
:1001B0000E94680086E69EE00197F1F7000080E269
:1001C0000E94680086E69EE00197F1F7000088E251
:1001D0000E9480008FE00C9480000E94BA0081E0B1
:1001E0000E9480008CE00E94800060E080E00E941D
:1001F000890086E890E00E949F0060E081E00E9414
:10020000890088E790E00E949F0060E082E00E9401
:1002100089008DE690E00E949F0060E083E00E94EC
:10022000890088E690E00C949F0086E69EE00197A6
:10023000F1F700000895EFEFF7E43197F1F700C010
:10024000000008953A9A8FEF97E40197F1F700C004
:1002500000009FEF2FE786E1915020408040E1F7BA
:1002600000C00000F0CF0F931F93CF93DF930F9246
:10027000CDB7DEB789838B018981811132C08FEFC1
:1002800097E40197F1F700C00000FB0180818B30FB
:1002900028F58AE080836FE081E00E948900F80100
:1002A00080811F928F9386E191E09F938F931F929D
:1002B00084E08F9381E491E09F938F930E94790370
:1002C0000FB6F894DEBF0FBECDBF81E491E00F9072
:1002D000DF91CF911F910F910C94AD0080818A50D6
:1002E000D9CF8FEF97E40197F1F700C00000FB0131
:1002F0008081883710F088E7CDCF8081865FCACFB4
:100300000F931F93CF93DF930F92CDB7DEB78983FF
:100310008B018981811148C08FEF97E40197F1F734
:1003200000C00000FB01808181113AC010826AE0A8
:1003300080E00E9489008AE191E00E94AD006AE0BD
:1003400080E00E948900F80180818531E0F580918C
:100350000001909101010E94AD0061E180E00E94E6
:100360008900F80180811F928F9386E191E09F932D
:100370008F931F9284E08F9381E491E09F938F93FA
:100380000E9479030FB6F894DEBF0FBECDBF81E4A3
:1003900091E00F90DF91CF911F910F910C94AD00E0
:1003A00080818A508083C3CF8FEF97E40197F1F764
:1003B00000C00000FB018081883710F088E7F2CF91
:1003C0008081865FEFCF8081893228F4809102019D
:1003D00090910301C0CF80818D3328F48091040176
:1003E00090910501B8CF8081813528F48091060174
:1003F00090910701B0CF80818536C0F380910801CC
:1004000090910901A8CF05966AE070E00E9451031F
:100410006150710908F4089588E18A95F1F700C0E8
:10042000F7CF1F921FB61F9211248F939F9389B10C
:1004300080933C0180913C018870809346018091BB
:100440003C0181708093480180913C0182708093CF
:10045000470180913C018470809345019091460151
:1004600080910D01981306C09091480180910C0174
:10047000981711F180910F01813009F051C09091CE
:100480004601992329F092E090930F0180933F0158
:1004900080914801882329F084E080930F01109215
:1004A0003F018091460180930D0180914801809326
:1004B0000C0181E080933E019091470180910B01F6
:1004C000981306C09091450180910A01981711F187
:1004D00080911101813009F066C090914701992304
:1004E00029F092E0909311018093400180914501A1
:1004F000882329F084E080931101109240018091BB
:10050000470180930B018091450180930A0181E0AE
:1005100080933D019F918F911F901FBE1F90189552
:1005200080910F018230A9F480914601811105C0AC
:1005300081E080930F0110923F0180914801882350
:1005400009F4AFCF83E080930F0181E080933F01F6
:10055000A8CF80910F01833081F4809146018111F1
:1005600006C084E080930F0181E080933F01809179
:100570004801811196CF82E090CF80910F018430A5
:1005800009F08FCF80914601882329F083E0809382
:100590000F0110923F0180914801811182CF81E0CB
:1005A00080930F01D3CF809111018230A9F4809103
:1005B0004701811105C081E0809311011092400133
:1005C00080914501882309F49ACF83E0809311013B
:1005D00081E08093400193CF80911101833081F4B9
:1005E00080914701811106C084E08093110181E070
:1005F0008093400180914501811181CF82E07BCFC2
:1006000080911101843009F07ACF809147018823CD
:1006100029F083E0809311011092400180914501FF
:1006200081116DCF81E080931101D3CF0E94BA0078
:100630000E94ED008BB18F608BB98091680084605F
:100640008093680080916D008F6080936D0089B108
:10065000817080930D0189B1887080930C0189B1FC
:10066000847080930B0189B1827080930A01789421
:1006700080913E01882341F010923E0180913F011C
:100680006EE071E00E94800180913D01882381F33A
:1006900010923D018091400160E171E00E943301C0
:1006A000E7CF97FB072E16F4009407D077FD09D00B
:1006B0000E94650307FC05D03EF4909581959F4FFD
:1006C0000895709561957F4F0895AA1BBB1B51E15A
:1006D00007C0AA1FBB1FA617B70710F0A61BB70BB2
:1006E000881F991F5A95A9F780959095BC01CD0157
:1006F0000895AEE0B0E0EFE7F3E00C9426060D8934
:100700001E898F89988D26E02C831A83098397FF91
:1007100002C080E090E801979E838D83AE01455E24
:100720005F4F698D7A8DCE0101960E94A9034D819C
:100730005E8157FD0AC02F813885421753070CF49C
:100740009A01020F131FF80110822E96E4E00C9418
:100750004206ABE0B0E0EFEAF3E00C9418067C014F
:100760003B018A01FC0117821682838181FFB9C196
:100770009AE0292ECE0101965C01F7019381F301E5
:1007800093FD859193FF81913F01882309F446C130
:10079000853239F493FD859193FF81913F01853234
:1007A00029F4B70190E00E948A05E7CF912C412CF3
:1007B000512CFFE1F51538F08B3209F188F48032C5
:1007C00001F1833221F157FC3AC020ED280F2A3085
:1007D00040F556FE1FC0929C200D1124922E06C09B
:1007E0008D3291F0803379F7689450F8F30193FDDE
:1007F000859193FF81913F018111DBCF20C06894E7
:1008000051F8689452F8F2CF689453F8EFCF689497
:1008100054F8ECCF429C200D1124422E689455F8D8
:10082000E5CF8E3229F456FCF9C0689456F8DECF35
:100830008C3619F4689457F8D9CF8836B9F2982FC6
:100840009F7D95549330C0F08336A1F18337C1F179
:10085000833509F05BC0F801C190D1908F01692DFB
:1008600070E056FC02C06FEF7FEFC6010E94740576
:100870004C01689457F80AC00C5F1F4F2FE329837F
:1008800088248394912C6501E89457F853FC04C0A4
:100890004814190409F018F5342C8114910431F529
:1008A000332009F46ACFB70180E290E00E948A0504
:1008B0003A94F6CFF801808189830E5F1F4FE0CF15
:1008C000F801C190D1908F01692D70E056FC02C0F3
:1008D0006FEF7FEFC6010E947F054C01D5CFB701B6
:1008E00080E290E00E948A054A94D2CFF60157FC3C
:1008F000859157FE81916F01B70190E00E948A05B2
:1009000031103A94F1E08F1A9108C7CF843619F06C
:10091000893609F074C0F80157FE6AC0619171917F
:10092000819191918F01252D2F76D22E97FF09C0AD
:1009300090958095709561957F4F8F4F9F4F6894EC
:10094000D7F82AE030E0A5010E94BA05C82ECA18DF
:100950008C2C5D2CD6FE0CC0E89450F8C91440F4E1
:10096000D4FE05C0D2FC03C0FD2DFE7E5F2E892C77
:1009700054FE8FC0FE01EC0DF11D8081803309F023
:1009800081C0252D297E522E852D8870382E53FC4E
:100990008FC050FE89C09C2C841418F44C0C942CED
:1009A000981854FE8BC0B70180E390E00E948A053E
:1009B00052FE09C088E790E051FE02C088E590E051
:1009C000B7010E948A05C91408F484C0CA94D12CC6
:1009D0009FEFC91AD90ACA0CDB1CF60182916F017C
:1009E000B70190E00E948A05AC14BD04B1F758CF5E
:1009F00061917191072E000C880B990B93CFD52C28
:100A0000E894D4F82AE030E0853739F1952D997FC4
:100A1000D92E8F3601F148F48835A9F0F701868187
:100A200097812B96E2E10C943406803749F08837A1
:100A3000A9F7D4FE02C06894D2F820E130E00DC0DE
:100A40006894D4F8F6CF54FE03C0E92FE660DE2E9A
:100A500020E132E002C028E030E0F801D7FE0DC00E
:100A600061917191819191918F01A5010E94BA05C7
:100A7000C82ECA18E894D7F86BCF6191719190E0B5
:100A800080E0F2CF52FC02C083947ECF83948394A3
:100A90007BCF852D867809F477CFF6CFB70180E23A
:100AA00090E00E948A0583948414C0F3312C79CF9E
:100AB000342C3818841408F474CFF8CF852D867838
:100AC00009F481CF8BE251FE80E257FC8DE2B70141
:100AD00090E077CFB70180E390E00E948A059A9476
:100AE00072CF8FEF9FEF9DCFFC010590615070405A
:100AF0000110D8F7809590958E0F9F1F0895FC01E7
:100B00006150704001900110D8F7809590958E0F3C
:100B10009F1F08950F931F93CF93DF93182F092FD3
:100B2000EB018B8181FD09C01FEF0FEF812F902F0B
:100B3000DF91CF911F910F91089582FF14C02E81F4
:100B40003F818C819D81281739073CF4E881F98128
:100B5000CF0101969983888310838E819F810196AE
:100B60009F838E83E3CFE885F985812F0995892BB3
:100B7000A1F3DACFFA01AA27283051F1203181F10F
:100B8000E8946F936E7F6E5F7F4F8F4F9F4FAF4F95
:100B9000B1E03ED0B4E03CD0670F781F891F9A1FA8
:100BA000A11D680F791F8A1F911DA11D6A0F711D5C
:100BB000811D911DA11D20D009F468943F912AE068
:100BC000269F11243019305D3193DEF6CF01089550
:100BD000462F4770405D4193B3E00FD0C9F7F6CF81
:100BE000462F4F70405D4A3318F0495D31FD405249
:100BF000419302D0A9F7EACFB4E0A69597958795DF
:100C000077956795BA95C9F70097610571050895BD
:100C10009B01AC010A2E0694579547953795279569
:100C2000BA95C9F7620F731F841F951FA01D089501
:100C30002F923F924F925F926F927F928F929F92EC
:100C4000AF92BF92CF92DF92EF92FF920F931F93DA
:100C5000CF93DF93CDB7DEB7CA1BDB0B0FB6F8948B
:100C6000DEBF0FBECDBF09942A88398848885F84CB
:100C70006E847D848C849B84AA84B984C884DF803C
:100C8000EE80FD800C811B81AA81B981CE0FD11D20
:100C90000FB6F894DEBF0FBECDBFED010895F894F6
:020CA000FFCF84
:100CA200240129012D01360131010303030332011D
:100CB20032010040145425336400202020202020DB
:100CC200202020007665727920647279006176674F
:0C0CD20000766572792064616D7000008E
:00000001FF
