:100000000C9449000C9466000C9466000C946600F5
:100010000C9466000C9433010C9466000C946600FA
:100020000C9466000C9466000C9466000C946600B8
:100030000C9466000C9466000C9466000C946600A8
:100040000C9466000C9466000C9466000C94660098
:100050000C9466000C9466000C9466000C94660088
:100060000C9466000C94660055563A200048756D55
:1000700069646974793A200054656D7065726174C1
:100080007572653A20004D6F6973747572653A2018
:10009000000011241FBECFEFD8E0DEBFCDBF11E0BE
:1000A000A0E0B1E0EEEEFCE002C005900D92A835B4
:1000B000B107D9F721E0A8E5B1E001C01D92AB3648
:1000C000B207E1F70E9444030C9475060C940000FB
:1000D0009BB19F709BB99BB1807F892B8BB985B1F8
:1000E000837F85B92A9A2A9A2A980895CF93C82F90
:1000F0000E9468008C2F8295807FCF910C946800BD
:100100002C980E94760086E69EE00197F1F70000A9
:100110000895843048F4E82FF0E0E55DFE4F8081DB
:10012000860F80680C94800080E3FACF2C9A0E949E
:10013000760086E69EE00197F1F700000895CF93E0
:10014000DF93EC01FE0184912196811103C0DF91C0
:10015000CF9108950E949600F5CFCF93DF93EC01E5
:100160008991811103C0DF91CF9108950E9496007B
:10017000CE01F5CF8AB1806F8AB984B18C6184B920
:100180002C988FEF9BE60197F1F700C0000080E309
:100190000E9468008FEF93E20197F1F700C0000022
:1001A00080E30E9468008DED90E00197F1F780E315
:1001B0000E94680086E69EE00197F1F7000080E269
:1001C0000E94680086E69EE00197F1F7000088E251
:1001D0000E9480008FE00C9480000E94BA0081E0B1
:1001E0000E9480008CE00E94800060E080E00E941D
:1001F000890086E890E00E949F0060E081E00E9414
:10020000890088E790E00E949F0060E082E00E9401
:1002100089008DE690E00E949F0060E083E00E94EC
:10022000890080E091E00C94AD0086E69EE00197A5
:10023000F1F700000895EFEFF7E43197F1F700C010
:10024000000008953A9A8FEF97E40197F1F700C004
:1002500000009FEF2FE786E1915020408040E1F7BA
:1002600000C00000F0CF1F921FB61F9211248F9381
:100270009F9389B180935801809158018870809331
:100280005E018091580181708093600180915801D6
:10029000827080935F0180915801847080935D012A
:1002A00090915E0180912601981306C090916001A3
:1002B00080912501981711F180912801813009F072
:1002C00051C090915E01992329F092E0909328010A
:1002D00080935B0180916001882329F084E0809302
:1002E000280110925B0180915E018093260180912C
:1002F00060018093250181E080935A0190915F0114
:1003000080912401981306C090915D018091230192
:10031000981711F180912A01813009F066C09091FF
:100320005F01992329F092E090932A0180935C0168
:1003300080915D01882329F084E080932A01109246
:100340005C0180915F018093240180915D01809325
:10035000230181E0809359019F918F911F901FBECF
:100360001F901895809128018230A9F480915E0138
:10037000811105C081E08093280110925B0180917A
:100380006001882309F4AFCF83E08093280181E0E6
:1003900080935B01A8CF80912801833081F4809104
:1003A0005E01811106C084E08093280181E0809382
:1003B0005B0180916001811196CF82E090CF8091A6
:1003C0002801843009F08FCF80915E01882329F0C5
:1003D00083E08093280110925B018091600181117C
:1003E00082CF81E080932801D3CF80912A0182308F
:1003F000A9F480915F01811105C081E080932A01F9
:1004000010925C0180915D01882309F49ACF83E00A
:1004100080932A0181E080935C0193CF80912A012F
:10042000833081F480915F01811106C084E0809364
:100430002A0181E080935C0180915D01811181CF6F
:1004400082E07BCF80912A01843009F07ACF8091BD
:100450005F01882329F083E080932A0110925C01D8
:1004600080915D0181116DCF81E080932A01D3CF0E
:1004700080915C01811132C08FEF97E40197F1F711
:1004800000C00000809129018B3020F58AE0809324
:1004900029016FE081E00E948900809129011F926B
:1004A0008F938FE291E09F938F931F9284E08F93BD
:1004B00081E691E09F938F930E949F038DB79EB733
:1004C00008960FB6F8949EBF0FBE8DBF81E691E0EF
:1004D0000C94AD00809129018A50D9CF8FEF97E419
:1004E0000197F1F700C0000080912901883710F0D2
:1004F00088E7CDCF80912901865FC9CF80915B01CC
:10050000811149C08FEF97E40197F1F700C0000017
:1005100080912701811139C0109227016AE080E0A3
:100520000E94890083E391E00E94AD006AE080E0D0
:100530000E948900809127018531E8F58091190199
:1005400090911A010E94AD0061E180E00E94890053
:10055000809127011F928F938FE291E09F938F9359
:100560001F9284E08F9381E691E09F938F930E9486
:100570009F038DB79EB708960FB6F8949EBF0FBE27
:100580008DBF81E691E00C94AD00809127018A50E7
:1005900080932701C3CF8FEF97E40197F1F700C055
:1005A000000080912701883710F088E7F1CF809113
:1005B0002701865FEDCF80912701893228F4809151
:1005C0001B0190911C01BECF809127018D3328F42F
:1005D00080911D0190911E01B5CF80912701813539
:1005E00028F480911F0190912001ACCF80912701C8
:1005F0008536B8F38091210190912201A3CF0E940A
:10060000BA000E94ED008BB18F608BB980916800B9
:1006100084608093680080916D008F6080936D008E
:1006200089B181708093260189B1887080932501FA
:1006300089B184708093240189B1827080932301F1
:10064000789460E080E00E94890080915A018823BC
:1006500021F010925A010E947E0280915901882354
:10066000A1F3109259010E943802EFCF05966AE07B
:1006700070E00E944B036150710908F4089588E10D
:100680008A95F1F700C0F7CF84E591E00E947303EB
:1006900090E080E0089597FB072E16F4009407D0B1
:1006A00077FD09D00E945F0307FC05D03EF49095CA
:1006B00081959F4F0895709561957F4F0895AA1B6E
:1006C000BB1B51E107C0AA1FBB1FA617B70710F03D
:1006D000A61BB70B881F991F5A95A9F7809590956F
:1006E000BC01CD0108950F931F93CF93DF93E09149
:1006F0006701F0916801238110E000E021FD0EC048
:100700000FEF1FEFC801DF91CF911F910F91089557
:100710000995892B11F00FEF1FEFCE01EC018991A4
:100720006091670170916801DB011896ED91FC9171
:100730008111EECF8AE00995892B21F3E1CFAEE05C
:10074000B0E0E5EAF3E00C944C060D891E898F8930
:10075000988D26E02C831A83098397FF02C080E0DE
:1007600090E801979E838D83AE01455E5F4F698D52
:100770007A8DCE0101960E94CF034D815E8157FD97
:100780000AC02F813885421753070CF49A01020FD3
:10079000131FF80110822E96E4E00C946806ABE07B
:1007A000B0E0E5EDF3E00C943E067C013B018A01EC
:1007B000FC0117821682838181FFB9C19AE0292E3C
:1007C000CE0101965C01F7019381F30193FD8591C0
:1007D00093FF81913F01882309F446C1853239F4A2
:1007E00093FD859193FF81913F01853229F4B701F3
:1007F00090E00E94B005E7CF912C412C512CFFE1F5
:10080000F51538F08B3209F188F4803201F183322A
:1008100021F157FC3AC020ED280F2A3040F556FE52
:100820001FC0929C200D1124922E06C08D3291F093
:10083000803379F7689450F8F30193FD859193FF25
:1008400081913F018111DBCF20C0689451F86894F9
:1008500052F8F2CF689453F8EFCF689454F8ECCF85
:10086000429C200D1124422E689455F8E5CF8E321B
:1008700029F456FCF9C0689456F8DECF8C3619F48A
:10088000689457F8D9CF8836B9F2982F9F7D955440
:100890009330C0F08336A1F18337C1F1833509F07D
:1008A0005BC0F801C190D1908F01692D70E056FCBA
:1008B00002C06FEF7FEFC6010E949A054C01689459
:1008C00057F80AC00C5F1F4F2FE3298388248394B5
:1008D000912C6501E89457F853FC04C0481419049E
:1008E00009F018F5342C8114910431F5332009F402
:1008F0006ACFB70180E290E00E94B0053A94F6CF4B
:10090000F801808189830E5F1F4FE0CFF801C1900D
:10091000D1908F01692D70E056FC02C06FEF7FEF20
:10092000C6010E94A5054C01D5CFB70180E290E039
:100930000E94B0054A94D2CFF60157FC859157FE2C
:1009400081916F01B70190E00E94B00531103A9497
:10095000F1E08F1A9108C7CF843619F0893609F073
:1009600074C0F80157FE6AC06191719181919191B3
:100970008F01252D2F76D22E97FF09C09095809557
:10098000709561957F4F8F4F9F4F6894D7F82AE0FD
:1009900030E0A5010E94E005C82ECA188C2C5D2C01
:1009A000D6FE0CC0E89450F8C91440F4D4FE05C03B
:1009B000D2FC03C0FD2DFE7E5F2E892C54FE8FC01D
:1009C000FE01EC0DF11D8081803309F081C0252DE1
:1009D000297E522E852D8870382E53FC8FC050FEF4
:1009E00089C09C2C841418F44C0C942C981854FE38
:1009F0008BC0B70180E390E00E94B00552FE09C0B1
:100A000088E790E051FE02C088E590E0B7010E94BF
:100A1000B005C91408F484C0CA94D12C9FEFC91A38
:100A2000D90ACA0CDB1CF60182916F01B70190E074
:100A30000E94B005AC14BD04B1F758CF619171911B
:100A4000072E000C880B990B93CFD52CE894D4F883
:100A50002AE030E0853739F1952D997FD92E8F36F0
:100A600001F148F48835A9F0F701868197812B962A
:100A7000E2E10C945A06803749F08837A9F7D4FE92
:100A800002C06894D2F820E130E00DC06894D4F838
:100A9000F6CF54FE03C0E92FE660DE2E20E132E0FF
:100AA00002C028E030E0F801D7FE0DC061917191DD
:100AB000819191918F01A5010E94E005C82ECA186D
:100AC000E894D7F86BCF6191719190E080E0F2CF1C
:100AD00052FC02C083947ECF839483947BCF852D78
:100AE000867809F477CFF6CFB70180E290E00E94D4
:100AF000B00583948414C0F3312C79CF342C38188A
:100B0000841408F474CFF8CF852D867809F481CF4A
:100B10008BE251FE80E257FC8DE2B70190E077CF87
:100B2000B70180E390E00E94B0059A9472CF8FEFF6
:100B30009FEF9DCFFC010590615070400110D8F7E8
:100B4000809590958E0F9F1F0895FC016150704015
:100B500001900110D8F7809590958E0F9F1F0895F2
:100B60000F931F93CF93DF93182F092FEB018B81E6
:100B700081FD09C01FEF0FEF812F902FDF91CF91E3
:100B80001F910F91089582FF14C02E813F818C81A7
:100B90009D81281739073CF4E881F981CF0101963E
:100BA0009983888310838E819F8101969F838E8392
:100BB000E3CFE885F985812F0995892BA1F3DACF59
:100BC000FA01AA27283051F1203181F1E8946F937E
:100BD0006E7F6E5F7F4F8F4F9F4FAF4FB1E03ED024
:100BE000B4E03CD0670F781F891F9A1FA11D680FC2
:100BF000791F8A1F911DA11D6A0F711D811D911DF5
:100C0000A11D20D009F468943F912AE0269F112469
:100C10003019305D3193DEF6CF010895462F4770CD
:100C2000405D4193B3E00FD0C9F7F6CF462F4F7028
:100C3000405D4A3318F0495D31FD4052419302D086
:100C4000A9F7EACFB4E0A69597958795779567952C
:100C5000BA95C9F700976105710508959B01AC012C
:100C60000A2E06945795479537952795BA95C9F753
:100C7000620F731F841F951FA01D08952F923F922E
:100C80004F925F926F927F928F929F92AF92BF929C
:100C9000CF92DF92EF92FF920F931F93CF93DF9348
:100CA000CDB7DEB7CA1BDB0B0FB6F894DEBF0FBEA5
:100CB000CDBF09942A88398848885F846E847D84F2
:100CC0008C849B84AA84B984C884DF80EE80FD80F4
:100CD0000C811B81AA81B981CE0FD11D0FB6F8946A
:0E0CE000DEBF0FBECDBFED010895F894FFCF2B
:100CEE003E3E205553432045453435394C203C3C3F
:100CFE003738393031323334003D01420146014F2D
:100D0E00014A01030303033201320100401454254A
:100D1E0033640020202020202020202000766572C1
:100D2E007920647279006176670076657279206445
:080D3E00616D7000686900009E
:00000001FF
