:100000000C9449000C945E000C945E000C945E000D
:100010000C945E000C945E000C945E000C945E00E8
:100020000C945E000C945E000C945E000C945E00D8
:100030000C945E000C945E000C945E000C945E00C8
:100040000C945E000C945E000C945E000C945E00B8
:100050000C945E000C945E000C945E000C945E00A8
:100060000C945E000C945E0055563A200048756D65
:1000700069646974793A200054656D7065726174C1
:100080007572653A20004D6F6973747572653A2018
:10009000000011241FBECFEFD8E0DEBFCDBF11E0BE
:1000A000A0E0B1E0ECE2F2E002C005900D92A430D5
:1000B000B107D9F70E94EB000C9414010C940000D6
:1000C0009BB19F709BB99BB1807F892B8BB985B108
:1000D000837F85B92A9A2A9A2A980895CF93C82FA0
:1000E0000E9460008C2F8295807FCF910C946000DD
:1000F0002C980E946E0086E69EE00197F1F70000C2
:100100000895843048F4E82FF0E0E050FF4F8081FC
:10011000860F80680C94780080E3FACF2C9A0E94B6
:100120006E0086E69EE00197F1F700000895CF93F8
:10013000DF93EC01FE0184912196811103C0DF91D0
:10014000CF9108950E948E00F5CFCF93DF93EC01FD
:100150008991811103C0DF91CF9108950E948E0093
:10016000CE01F5CF8AB1806F8AB984B18C6184B930
:100170002C988FEF9BE60197F1F700C0000080E319
:100180000E9460008FEF93E20197F1F700C000003A
:1001900080E30E9460008DED90E00197F1F780E32D
:1001A0000E94600086E69EE00197F1F7000080E281
:1001B0000E94600086E69EE00197F1F7000088E269
:1001C0000E9478008FE00C94780086E69EE001970C
:1001D000F1F7000008950E94B20081E00E947800CB
:1001E0008CE00E94780060E080E00E94810086E858
:1001F00090E00E94970060E081E00E94810088E723
:1002000090E00E94970060E082E00E9481008DE60D
:1002100090E00E94970060E083E00E94810088E601
:0C02200090E00E949700FFCFF894FFCF01
:04022C000040145426
:00000001FF
