:100000000C9434000C9449000C9449000C94490061
:100010000C9449000C9449000C9449000C9449003C
:100020000C9449000C9449000C9449000C9449002C
:100030000C9449000C9449000C9449000C9449001C
:100040000C9449000C9449000C9449000C9449000C
:100050000C9449000C9449000C9449000C944900FC
:100060000C9449000C94490011241FBECFEFD8E036
:10007000DEBFCDBF11E0A0E0B1E0E8E2F2E002C0F7
:1000800005900D92AC32B107D9F70E94F9000C949B
:1000900012010C9400005F9887FD5F9A5E9886FDC0
:1000A0005E9A5D9885FD5D9A5C9884FD5C9A299ABC
:1000B00083E08A95F1F70000299883E08A95F1F7AB
:1000C00000000895CF93C82F289A29980E944B00CA
:1000D0008C2F8295807FCF910C944B000F931F93B0
:1000E000CF93DF9300D0CDB7DEB78C011A8219828F
:1000F000E981FA81E00FF11F8081811107C00F9023
:100100000F90DF91CF911F910F910895E981FA81AE
:10011000E00FF11F80810E94620089819A8101961F
:100120009A83898384EC90E00197F1F700C0E0CFD7
:10013000CF93C82F289829980E944B008C2F829526
:10014000807FCF910C944B002FEF8FEF92E02150E6
:1001500080409040E1F700C000C02898299880E3D3
:100160000E944B008FEF9FE50197F1F700C0000060
:1001700080E30E944B008BEE91E00197F1F700C005
:1001800080E30E944B008BEE91E00197F1F700C0F5
:1001900088E20E944B0084EC90E00197F1F700C0E8
:1001A00088E20E94980084EC90E00197F1F700C08B
:1001B00088E00E94980084EC90E00197F1F700C07D
:1001C00081E00E94980086E696E20197F1F7000030
:1001D00086E00E94980084EC90E00197F1F700C05F
:1001E0008CE00E94980084EC90E00197F1F700C049
:1001F0000895579A569A559A549A219A209A0E948D
:10020000A4008EE191E00E946E0080EC0E949800B4
:1002100084EC90E00197F1F700C08DE091E00E943E
:080220006E00FFCFF894FFCF40
:100228005365702031362C2032303133004C434432
:100238002D4156522D346420286763632900446F8A
:0C0248006E616C64205765696D616E008A
:00000001FF
