:100000000C9449000C9466000C9466000C946600F5
:100010000C9430020C9438030C9466000C94660027
:100020000C9466000C9466000C9466000C946600B8
:100030000C9466000C9466000C9466000C946600A8
:100040000C9466000C9466000C9466000C94660098
:100050000C9466000C9466000C9466000C94660088
:100060000C9466000C94660055563A200048756D55
:1000700069646974793A200054656D7065726174C1
:100080007572653A20004D6F6973747572653A2018
:10009000000011241FBECFEFD8E0DEBFCDBF11E0BE
:1000A000A0E0B1E0E0E1F8E102C005900D92AA3BCA
:1000B000B107D9F722E0AAEBB1E001C01D92A93047
:1000C000B207E1F70E946D060C94060C0C94000038
:1000D0009BB19F709BB99BB1807F892B8BB985B1F8
:1000E000837F85B92A9A2A9A2A980895CF93C82F90
:1000F0000E9468008C2F8295807FCF910C946800BD
:100100002C980E94760086E69EE00197F1F70000A9
:100110000895843048F4E82FF0E0EF56FE4F8081D8
:10012000860F80680C94800080E3FACF2C9A0E949E
:10013000760086E69EE00197F1F700000895CF93E0
:10014000DF93EC01FE0184912196811103C0DF91C0
:10015000CF9108950E949600F5CFCF93DF93EC01E5
:100160008991811103C0DF91CF9108950E9496007B
:10017000CE01F5CF8AB1806F8AB984B18C6184B920
:100180002C988FEF9BE60197F1F700C0000080E309
:100190000E9468008FEF93E20197F1F700C0000022
:1001A00080E30E9468008DED90E00197F1F780E315
:1001B0000E94680086E69EE00197F1F7000080E269
:1001C0000E94680086E69EE00197F1F7000088E251
:1001D0000E9480008FE00C9480000E94BA0081E0B1
:1001E0000E9480008CE00E94800060E080E00E941D
:1001F000890086E890E00E949F0060E081E00E9414
:10020000890088E790E00E949F0060E082E00E9401
:1002100089008DE690E00E949F0060E083E00E94EC
:10022000890088E690E00C949F0086E69EE00197A6
:10023000F1F700000895299A2FEF8FE790E72150FA
:1002400080409040E1F700C0000029982FEF8FE731
:1002500090E7215080409040E1F700C00000299ACB
:100260002FEF8FE790E7215080409040E1F700C0EA
:10027000000080917A00806C80937A0080917A00EF
:1002800086FDFCCF80917900299890E008950F9326
:100290001F93CF93DF930F92CDB7DEB789838B0186
:1002A0008981811132C08FEF97E40197F1F700C087
:1002B0000000FB0180818B3028F58AE080836FE0AD
:1002C00081E00E948900F80180811F928F9385E967
:1002D00091E09F938F931F9284E08F9387ED91E03D
:1002E0009F938F930E940D090FB6F894DEBF0FBE47
:1002F000CDBF87ED91E00F90DF91CF911F910F91CE
:100300000C94AD0080818A50D9CF8FEF97E401978C
:10031000F1F700C00000FB018081883710F088E70A
:10032000CDCF8081865FCACF0F931F93CF93DF938A
:100330000F92CDB7DEB789838B018981811148C0C7
:100340008FEF97E40197F1F700C00000FB01808177
:1003500081113AC010826AE080E00E94890089E938
:1003600091E00E94AD006AE080E00E948900F801FF
:1003700080818531E0F580910001909101010E941A
:10038000AD0061E180E00E948900F80180811F9248
:100390008F9385E991E09F938F931F9284E08F93D1
:1003A00087ED91E09F938F930E940D090FB6F8940B
:1003B000DEBF0FBECDBF87ED91E00F90DF91CF91F3
:1003C0001F910F910C94AD0080818A508083C3CF20
:1003D0008FEF97E40197F1F700C00000FB018081E7
:1003E000883710F088E7F2CF8081865FEFCF808179
:1003F000893228F48091020190910301C0CF80815D
:100400008D3328F48091040190910501B8CF80814B
:10041000813528F48091060190910701B0CF808149
:100420008536C0F38091080190910901A8CF059607
:100430006AE070E00E9419076150710908F408959C
:1004400088E18A95F1F700C0F7CF83E084B915B849
:100450003A9882E680937C0087E880937A0008953A
:100460001F921FB61F9211248F939F9389B180937F
:10047000C00186B18093BF018091C00188708093D4
:10048000C8018091BF0182708093CE018091BF012D
:1004900081708093CB018091C00184708093C501ED
:1004A0009091C80180911201981306C09091CE01DD
:1004B00080911101981711F180911401813009F098
:1004C00051C09091C801992329F092E090931401B2
:1004D0008093C3018091CE01882329F084E080932A
:1004E00014011092C3018091C80180931201809180
:1004F000CE018093110181E08093C2019091CB01E4
:1005000080911001981306C09091C50180910F0150
:10051000981711F180911601813009F066C0909111
:10052000CB01992329F092E0909316018093C401A6
:100530008091C501882329F084E0809316011092F0
:10054000C4018091CB01809310018091C5018093FB
:100550000F0181E08093C1019F918F911F901FBE79
:100560001F901895809114018230A9F48091C801E0
:10057000811105C081E0809314011092C301809124
:10058000CE01882309F4AFCF83E08093140181E08A
:100590008093C301A8CF80911401833081F48091AE
:1005A000C801811106C084E08093140181E080932A
:1005B000C3018091CE01811196CF82E090CF8091CE
:1005C0001401843009F08FCF8091C801882329F06D
:1005D00083E0809314011092C3018091CE018111B8
:1005E00082CF81E080931401D3CF809116018230B5
:1005F000A9F48091CB01811105C081E0809316019F
:100600001092C4018091C501882309F49ACF83E038
:100610008093160181E08093C40193CF80911601ED
:10062000833081F48091CB01811106C084E08093F6
:10063000160181E08093C4018091C501811181CFB1
:1006400082E07BCF80911601843009F07ACF8091CF
:10065000CB01882329F083E0809316011092C40116
:100660008091C50181116DCF81E080931601D3CFB8
:100670001F920F920FB60F9211242F933F934F9317
:100680005F936F937F938F939F93AF93BF93EF93FA
:10069000FF930E943002FF91EF91BF91AF919F9124
:1006A0008F917F916F915F914F913F912F910F901B
:1006B0000FBE0F901F9018952F923F924F925F920E
:1006C0006F927F928F929F92AF92BF92CF92DF9262
:1006D000EF92FF920F931F93CF93DF937C01EB0177
:1006E000FA018901718160E0208130E0622B732B77
:1006F00080E090E00E94E9071B012C01F801718164
:1007000060E0208130E0622B732B80E090E00E945B
:10071000E9073B014C01F701718160E0208130E085
:10072000622B732B80E090E00E94E9077B018C0133
:10073000C201B1012BE734E14EE050EC0E94A00869
:100740009B01AC01C801B7010E9442077B018C01EB
:10075000C401B30121E73DE34AEA5FEB0E94A00830
:100760009B01AC01C801B7010E9442072CE534EDA2
:100770004EE05AE30E94A0085B016C01798160E0C1
:10078000288130E0622B732B80E090E00E94E90723
:100790007B018C01C201B1012DEC3CEC4CE350EC2F
:1007A0000E94A0089B01AC01C801B7010E9442074A
:1007B0007B018C01C401B30120E030E040EE5FEB2F
:1007C0000E94A0089B01AC01C801B7010E9442072A
:1007D00025E033EB40E25AE30E94A0089B01AC0104
:1007E000C601B5010E94420720E030E040E05FE32F
:1007F0000E94A008DF91CF911F910F91FF90EF9081
:10080000DF90CF90BF90AF909F908F907F906F9030
:100810005F904F903F902F900895BF92CF92DF92BC
:10082000EF92FF920F931F93CF93DF93B82EFB01AC
:10083000D901E7014115510531F40115110519F4EC
:1008400090E080E054C084EA8093BC008091BC00BA
:1008500087FFFCCF9091B900987F983009F09FC036
:100860008B2D8E7F8093BB0084E88093BC008091A9
:10087000BC0087FFFCCF9091B900987F9831B1F010
:10088000903209F08CC088C080818093BB00209397
:10089000BC008091BC0087FFFCCF9091B900987F8D
:1008A000415050409832C9F4319601C024E84115B6
:1008B000510551F716C08C918093BB002093BC006A
:1008C0008091BC0087FFFCCF9091B900987F0150C8
:1008D0001040983211F4119605C0903309F05FC0B2
:1008E0005BC024E80115110531F791E081E0C114E6
:1008F000D10409F44EC0882311F428E001C020E19E
:1009000084EA8093BC008091BC0087FFFCCF90916B
:10091000B900987F921709F042C081E0B82AB092DE
:10092000BB0084E88093BC008091BC0087FFFCCFB3
:100930009091B900987F903419F0983481F52CC0CB
:100940000894C108D10824EC11C02093BC00809108
:10095000BC0087FFFCCF9091B900987F0894C10834
:10096000D1089035E1F48091BB008993C114D10482
:1009700061F784E88093BC008091BC0087FFFCCFC6
:100980009091B900987F983551F48091BB0088838D
:1009900002C0992321F090E084E98093BC00892F64
:1009A000DF91CF911F910F91FF90EF90DF90CF904B
:1009B000BF900895CF92DF92EF92FF920F931F9313
:1009C000AC019B0180E2BA0141E050E002E010E09E
:1009D000EE24FF24CC24DD240E940D041092B900E3
:1009E0008DE18093B8001F910F91FF90EF90DF9001
:1009F000CF9008951092B9008093B8000895EF92B7
:100A0000FF920F931F937B018C0183E069E00E94AA
:100A10008900C801B70120E030E040E050E00E94CA
:100A2000AE0788232CF480914301909144011DC0AE
:100A3000C801B7012DEC3CEC4CE45FE30E94AE072B
:100A400088232CF480914501909146010EC0C80185
:100A5000B7012DEC3CEC4CE45FE30E949B0888233B
:100A600034F080914701909148010E94AD001F91A0
:100A70000F91FF90EF900895AF92BF92CF92DF92C7
:100A8000EF92FF920F931F936B017C0183E06AE06A
:100A90000E948900C701B6010E94B3072DB73EB777
:100AA000285030400FB6F8943EBF0FBE2DBF0DB793
:100AB0001EB70F5F1F4F87EDA82E81E0B82EEDB750
:100AC000FEB7B282A18227E131E0F80133832283AD
:100AD00075836483882777FD8095982F0E94EB07A4
:100AE0009B01AC01C701B6010E94410720E030E53F
:100AF00043EC57E40E94A0080E94B307F8017783F3
:100B000066830E943D092DB73EB7285F3F4F0FB661
:100B1000F8943EBF0FBE2DBFC5010E94AD001F91CE
:100B20000F91FF90EF90DF90CF90BF90AF9008951E
:100B3000AF92BF92CF92DF92EF92FF920F931F93EB
:100B40006B017C0183E069E00E948900C701B60166
:100B50000E94B3072DB73EB7285030400FB6F89427
:100B60003EBF0FBE2DBF0DB71EB70F5F1F4F97EDD6
:100B7000A92E91E0B92EEDB7FEB7B282A18227E18E
:100B800031E0F8013383228375836483882777FDFE
:100B90008095982F0E94EB079B01AC01C701B6011D
:100BA0000E94410720E030E543EC57E40E94A00892
:100BB0000E94B307F801778366830E943D092DB731
:100BC0003EB7285F3F4F0FB6F8943EBF0FBE2DBF14
:100BD000C5010E94AD001F910F91FF90EF90DF9033
:100BE000CF90BF90AF900895AF92BF92CF92DF9217
:100BF000EF92FF920F931F939C015B0180E2B9017A
:100C000041E050E020E030E000E010E07501E2E07B
:100C1000CE2ED12C0E940D0483E06FE00E9489004B
:100C20008DB79EB708970FB6F8949EBF0FBE8DBFC5
:100C3000EDB7FEB7319607ED11E0ADB7BEB712962E
:100C40001C930E93119734E0C32ED12CD382C28211
:100C50002FE1E22E21E0F22EF582E482D5018C9183
:100C6000868317820E940D098DB79EB708960FB62E
:100C7000F8949EBF0FBE8DBFC8010E94AD00ADB7F6
:100C8000BEB718970FB6F894BEBF0FBEADBFEDB795
:100C9000FEB7319612961C930E931197D382C2829F
:100CA000F582E482D50111968C91868317820E9489
:100CB0000D098DB79EB708960FB6F8949EBF0FBE6C
:100CC0008DBFC8010E94AD001F910F91FF90EF9062
:100CD000DF90CF90BF90AF9008950E9425020E94B0
:100CE000BA000E94ED008BB18C608BB988B1836033
:100CF00088B9809168008460809368008091680062
:100D000082608093680080916D008C6080936D009C
:100D100080916C00836080936C0086B182708093B8
:100D2000120189B188708093110189B18470809318
:100D3000100186B1817080930F0178946CEB71E0A3
:100D40008EEB91E00E94DA048091C201882341F089
:100D50001092C2018091C30163E171E00E9494018D
:100D60008091C101882341F01092C1018091C4019A
:100D700065E171E00E94470182E0C82ED12C93ED1D
:100D8000E92E91E0F92E10E000E030E020E041E0B3
:100D900050E06EE071E080E20E940D0429ECE22E4A
:100DA00021E0F22E30E020E041E050E06DE071E023
:100DB00080E20E940D0436ECE32E31E0F32E30E0A9
:100DC00020E041E050E06CE071E080E20E940D0420
:100DD0004CECE42E41E0F42E30E020E041E050E025
:100DE0006BE071E080E20E940D04970146EC51E057
:100DF00069EC71E083ED91E00E945C036093CF01A8
:100E00007093D0018093D1019093D2010E94FF048E
:100E10000E941B019093BB018093BA01823391051C
:100E200014F4289A91CF893C91050CF48DCF289821
:100E30008BCF97FB072E16F4009407D077FD09D0CF
:100E40000E942D0707FC05D03EF4909581959F4F99
:100E50000895709561957F4F0895AA1BBB1B51E1C2
:100E600007C0AA1FBB1FA617B70710F0A61BB70B1A
:100E7000881F991F5A95A9F780959095BC01CD01BF
:100E800008955058BB27AA270E9459070C9461085F
:100E90000E94530838F00E945A0820F039F49F3F0E
:100EA00019F426F40C9450080EF4E095E7FB0C942A
:100EB0004A08E92F0E94720858F3BA1762077307AD
:100EC0008407950720F079F4A6F50C9494080EF4A5
:100ED000E0950B2EBA2FA02D0B01B90190010C014A
:100EE000CA01A0011124FF27591B99F0593F50F462
:100EF000503E68F11A16F040A22F232F342F4427BA
:100F0000585FF3CF469537952795A795F0405395B1
:100F1000C9F77EF41F16BA0B620B730B840BBAF081
:100F20009150A1F0FF0FBB1F661F771F881FC2F7EC
:100F30000EC0BA0F621F731F841F48F48795779500
:100F40006795B795F7959E3F08F0B0CF9395880FBA
:100F500008F09927EE0F9795879508950E94260827
:100F600008F481E008950E94BA076894B1110C94C6
:100F7000950808950E947A0888F09F5798F0B92F35
:100F80009927B751B0F0E1F0660F771F881F991FBE
:100F90001AF0BA95C9F714C0B13091F00E949408C4
:100FA000B1E008950C949408672F782F8827B85FD4
:100FB00039F0B93FCCF3869577956795B395D9F716
:100FC0003EF490958095709561957F4F8F4F9F4F20
:100FD0000895E89409C097FB3EF49095809570952C
:100FE00061957F4F8F4F9F4F9923A9F0F92F96E975
:100FF000BB279395F695879577956795B795F111EA
:10100000F8CFFAF4BB0F11F460FF1BC06F5F7F4F86
:101010008F4F9F4F16C0882311F096E911C0772398
:1010200021F09EE8872F762F05C0662371F096E8A1
:10103000862F70E060E02AF09A95660F771F881F70
:10104000DAF7880F9695879597F90895990F000814
:10105000550FAA0BE0E8FEEF16161706E807F9078A
:10106000C0F012161306E407F50798F0621B730B25
:10107000840B950B39F40A2661F0232B242B252BA6
:1010800021F408950A2609F4A140A6958FEF811D49
:10109000811D089597F99F6780E870E060E00895EA
:1010A0009FEF80EC089500240A9416161706180680
:1010B0000906089500240A9412161306140605065C
:1010C0000895092E0394000C11F4882352F0BB0FED
:1010D00040F4BF2B11F460FF04C06F5F7F4F8F4F50
:1010E0009F4F089557FD9058440F551F59F05F3F8B
:1010F00071F04795880F97FB991F61F09F3F79F03A
:1011000087950895121613061406551FF2CF4695BB
:10111000F1DF08C0161617061806991FF1CF86953D
:101120007105610508940895E894BB276627772721
:10113000CB0197F908950E94260808F48FEF0895CF
:101140000E94B3080C9461080E94530838F00E9472
:101150005A0820F0952311F00C944A080C9450087A
:1011600011240C9495080E94720870F3959FC1F3A6
:10117000950F50E0551F629FF001729FBB27F00D45
:10118000B11D639FAA27F00DB11DAA1F649F66279A
:10119000B00DA11D661F829F2227B00DA11D621FE9
:1011A000739FB00DA11D621F839FA00D611D221FA3
:1011B000749F3327A00D611D231F849F600D211D87
:1011C000822F762F6A2F11249F5750409AF0F1F00A
:1011D00088234AF0EE0FFF1FBB1F661F771F881F73
:1011E00091505040A9F79E3F510580F00C944A0859
:1011F0000C9495085F3FE4F3983ED4F38695779579
:101200006795B795F795E7959F5FC1F7FE2B880F18
:10121000911D9695879597F90895AEE0B0E0E3E1CA
:10122000F9E00C94DD0B0D891E898F89988D26E0DD
:101230002C831A83098397FF02C080E090E801970E
:101240009E838D83AE01455E5F4F698D7A8DCE01A1
:1012500001960E9460094D815E8157FD0AC02F8171
:101260003885421753070CF49A01020F131FF80137
:1012700010822E96E4E00C94F90BAEE0B0E0E3E4CB
:10128000F9E00C94DD0B0D891E8986E08C831A83AE
:1012900009838FEF9FE79E838D83AE01475E5F4F8B
:1012A0006F89788DCE0101960E9460092F81388563
:1012B000020F131FF80110822E96E4E00C94F90B34
:1012C000ABE0B0E0E6E6F9E00C94CF0B7C013B012B
:1012D0008A01FC0117821682838181FFB9C19AE0DD
:1012E000292ECE0101965C01F7019381F30193FD54
:1012F000859193FF81913F01882309F446C185328E
:1013000039F493FD859193FF81913F01853229F452
:10131000B70190E00E94410BE7CF912C412C512C5A
:10132000FFE1F51538F08B3209F188F4803201F1D4
:10133000833221F157FC3AC020ED280F2A3040F5C6
:1013400056FE1FC0929C200D1124922E06C08D3295
:1013500091F0803379F7689450F8F30193FD85910B
:1013600093FF81913F018111DBCF20C0689451F838
:10137000689452F8F2CF689453F8EFCF689454F819
:10138000ECCF429C200D1124422E689455F8E5CFF5
:101390008E3229F456FCF9C0689456F8DECF8C36AC
:1013A00019F4689457F8D9CF8836B9F2982F9F7DF1
:1013B00095549330C0F08336A1F18337C1F1833562
:1013C00009F05BC0F801C190D1908F01692D70E0E8
:1013D00056FC02C06FEF7FEFC6010E942B0B4C0141
:1013E000689457F80AC00C5F1F4F2FE329838824A5
:1013F0008394912C6501E89457F853FC04C0481479
:10140000190409F018F5342C8114910431F53320B6
:1014100009F46ACFB70180E290E00E94410B3A9450
:10142000F6CFF801808189830E5F1F4FE0CFF8016E
:10143000C190D1908F01692D70E056FC02C06FEF12
:101440007FEFC6010E94360B4C01D5CFB70180E279
:1014500090E00E94410B4A94D2CFF60157FC85914F
:1014600057FE81916F01B70190E00E94410B31104E
:101470003A94F1E08F1A9108C7CF843619F0893673
:1014800009F074C0F80157FE6AC0619171918191B1
:1014900091918F01252D2F76D22E97FF09C090951F
:1014A0008095709561957F4F8F4F9F4F6894D7F8C7
:1014B0002AE030E0A5010E94710BC82ECA188C2CBE
:1014C0005D2CD6FE0CC0E89450F8C91440F4D4FE4C
:1014D00005C0D2FC03C0FD2DFE7E5F2E892C54FE7C
:1014E0008FC0FE01EC0DF11D8081803309F081C0B9
:1014F000252D297E522E852D8870382E53FC8FC0C5
:1015000050FE89C09C2C841418F44C0C942C981810
:1015100054FE8BC0B70180E390E00E94410B52FE65
:1015200009C088E790E051FE02C088E590E0B7016D
:101530000E94410BC91408F484C0CA94D12C9FEFB7
:10154000C91AD90ACA0CDB1CF60182916F01B701D6
:1015500090E00E94410BAC14BD04B1F758CF6191EB
:101560007191072E000C880B990B93CFD52CE89422
:10157000D4F82AE030E0853739F1952D997FD92EBE
:101580008F3601F148F48835A9F0F70186819781FB
:101590002B96E2E10C94EB0B803749F08837A9F7E2
:1015A000D4FE02C06894D2F820E130E00DC0689407
:1015B000D4F8F6CF54FE03C0E92FE660DE2E20E11A
:1015C00032E002C028E030E0F801D7FE0DC06191A2
:1015D0007191819191918F01A5010E94710BC82E8B
:1015E000CA18E894D7F86BCF6191719190E080E0D0
:1015F000F2CF52FC02C083947ECF839483947BCF3E
:10160000852D867809F477CFF6CFB70180E290E098
:101610000E94410B83948414C0F3312C79CF342C75
:101620003818841408F474CFF8CF852D867809F41F
:1016300081CF8BE251FE80E257FC8DE2B70190E052
:1016400077CFB70180E390E00E94410B9A9472CF6C
:101650008FEF9FEF9DCFFC0105906150704001100E
:10166000D8F7809590958E0F9F1F0895FC016150CB
:10167000704001900110D8F7809590958E0F9F1FB4
:1016800008950F931F93CF93DF93182F092FEB012A
:101690008B8181FD09C01FEF0FEF812F902FDF910C
:1016A000CF911F910F91089582FF14C02E813F8129
:1016B0008C819D81281739073CF4E881F981CF019D
:1016C00001969983888310838E819F8101969F83E1
:1016D0008E83E3CFE885F985812F0995892BA1F3C6
:1016E000DACFFA01AA27283051F1203181F1E894AC
:1016F0006F936E7F6E5F7F4F8F4F9F4FAF4FB1E005
:101700003ED0B4E03CD0670F781F891F9A1FA11DFF
:10171000680F791F8A1F911DA11D6A0F711D811D00
:10172000911DA11D20D009F468943F912AE0269FC5
:1017300011243019305D3193DEF6CF010895462F24
:101740004770405D4193B3E00FD0C9F7F6CF462F05
:101750004F70405D4A3318F0495D31FD405241936E
:1017600002D0A9F7EACFB4E0A6959795879577952B
:101770006795BA95C9F700976105710508959B01B2
:10178000AC010A2E06945795479537952795BA953B
:10179000C9F7620F731F841F951FA01D08952F9214
:1017A0003F924F925F926F927F928F929F92AF92F1
:1017B000BF92CF92DF92EF92FF920F931F93CF933E
:1017C000DF93CDB7DEB7CA1BDB0B0FB6F894DEBFD5
:1017D0000FBECDBF09942A88398848885F846E84FB
:1017E0007D848C849B84AA84B984C884DF80EE8045
:1017F000FD800C811B81AA81B981CE0FD11D0FB64E
:10180000F894DEBF0FBECDBFED010895F894FFCF71
:10181000A301A801AC01B501B0010C0B0A09070333
:101820000303033201320125642E30302564002584
:101830003364006E6F2055562072617973007368AF
:1018400061647920202020200073756E6E7920203D
:1018500020200023012E0139010000803F0000807C
:101860003F0000803F0000803F7B140E40713DAA86
:101870003FCDCC3C400000E03FF025113BF99E916C
:101880003A5CD40E3A4D069A39500A1E39DD4E2381
:101890003B0AD7A33A05B3203A864BAD3927D0315E
:1018A00039004014542533640020202020202020BB
:1018B0002020007665727920647279006176670075
:0A18C000766572792064616D700096
:00000001FF
