:100000000C9449000C9466000C9466000C946600F5
:100010000C940E020C9416030C9466000C9466006B
:100020000C9466000C9466000C9466000C946600B8
:100030000C9466000C9466000C9466000C946600A8
:100040000C9466000C9466000C9466000C94660098
:100050000C9466000C9466000C9466000C94660088
:100060000C9466000C94660055563A200048756D55
:1000700069646974793A200054656D7065726174C1
:100080007572653A20004D6F6973747572653A2018
:10009000000011241FBECFEFD8E0DEBFCDBF12E0BD
:1000A000A0E0B1E0EAE4F2E202C005900D92A23CC9
:1000B000B107D9F713E0A2ECB2E001C01D92AF3056
:1000C000B107E1F70E941E040C9423110C94000068
:1000D0009BB19F709BB99BB1807F892B8BB985B1F8
:1000E000837F85B92A9A2A9A2A980895CF93C82F90
:1000F0000E9468008C2F8295807FCF910C946800BD
:100100002C980E94760086E69EE00197F1F70000A9
:100110000895843048F4E82FF0E0E756FD4F8081E1
:10012000860F80680C94800080E3FACF2C9A0E949E
:10013000760086E69EE00197F1F700000895CF93E0
:10014000DF93EC01FE0184912196811103C0DF91C0
:10015000CF9108950E949600F5CFCF93DF93EC01E5
:100160008991811103C0DF91CF9108950E9496007B
:10017000CE01F5CF8AB1806F8AB984B18C6184B920
:100180002C988FEF9BE60197F1F700C0000080E309
:100190000E9468008FEF93E20197F1F700C0000022
:1001A00080E30E9468008DED90E00197F1F780E315
:1001B0000E94680086E69EE00197F1F7000080E269
:1001C0000E94680086E69EE00197F1F7000088E251
:1001D0000E9480008FE00C9480000E94BA0081E0B1
:1001E0000E9480008CE00E94800060E080E00E941D
:1001F000890086E890E00E949F0060E081E00E9414
:10020000890088E790E00E949F0060E082E00E9401
:1002100089008DE690E00E949F0060E083E00E94EC
:10022000890088E690E00C949F0086E69EE00197A6
:10023000F1F700000895E0E0F8E43197F1F7089550
:100240003A9A40E058E428EB30E0CA010197F1F710
:1002500080E197E2F9013197F1F70197D9F7F5CFEE
:100260000F931F93CF93DF930F92CDB7DEB78983A0
:100270008B018981811132C08FEF97E40197F1F7EB
:1002800000C00000FB0180818B3028F58AE080836C
:100290006FE081E00E948900F80180811F928F93B6
:1002A0008DE992E09F938F931F9284E08F938DED61
:1002B00092E09F938F930E94510E0FB6F894DEBF89
:1002C0000FBECDBF8DED92E00F90DF91CF911F91CA
:1002D0000F910C94AD0080818A50D9CF8FEF97E4B5
:1002E0000197F1F700C00000FB018081883710F012
:1002F00088E7CDCF8081865FCACF0F931F93CF93BE
:10030000DF930F92CDB7DEB789838B01898181118D
:1003100048C08FEF97E40197F1F700C00000FB01A0
:10032000808181113AC010826AE080E00E948900D9
:1003300081EA92E00E94AD006AE080E00E948900BC
:10034000F80180818531E0F58091000190910101F3
:100350000E94AD0061E180E00E948900F801808187
:100360001F928F938DE992E09F938F931F9284E069
:100370008F938DED92E09F938F930E94510E0FB655
:10038000F894DEBF0FBECDBF8DED92E00F90DF91F0
:10039000CF911F910F910C94AD0080818A50808382
:1003A000C3CF8FEF97E40197F1F700C00000FB0186
:1003B0008081883710F088E7F2CF8081865FEFCFA9
:1003C0008081893228F48091020190910301C0CF8D
:1003D00080818D3328F48091040190910501B8CF7C
:1003E0008081813528F48091060190910701B0CF7A
:1003F00080818536C0F38091080190910901A8CFD2
:1004000005966AE070E00E94F30D6150710908F4EE
:10041000089588E18A95F1F700C0F7CF1F920F92F7
:100420000FB60F9211248F939F9389B18093C602C8
:1004300086B18093C7028091C60288708093CE02F5
:100440008091C70282708093D4028091C70281702C
:100450008093D1028091C60284708093CB029091E8
:10046000CE0280910E01981739F49091D4028091B8
:100470000F01981709F463C090910C01913081F439
:100480008091CE02882329F082E080930C01909322
:10049000C3028091D402882309F446C084E029C0B5
:1004A00080910C01823091F48091CE02882329F44E
:1004B00081E080930C011092C3028091D4028823C2
:1004C00099F183E080930C0181E02CC080910C01B4
:1004D0008330A1F48091CE02882331F484E08093AC
:1004E0000C0181E08093C3028091D4028823E1F45F
:1004F00082E080930C011092C30216C080910C011F
:10050000843091F48091CE02882329F083E0809397
:100510000C011092C3028091D402882329F481E057
:1005200080930C018093C3028091CE0280930E01D0
:100530008091D40280930F0181E08093C402909156
:10054000D10280911001981739F49091CB028091DB
:100550001101981709F463C090910A01913081F458
:100560008091D102882329F082E080930A01909340
:10057000C2028091CB02882309F446C084E029C0DE
:1005800080910A01823091F48091D102882329F46C
:1005900081E080930A011092C2028091CB028823ED
:1005A00099F183E080930A0181E02CC080910A01D7
:1005B0008330A1F48091D102882331F484E08093C8
:1005C0000A0181E08093C2028091CB028823E1F48A
:1005D00082E080930A011092C20216C080910A0143
:1005E000843091F48091D102882329F083E08093B4
:1005F0000A011092C2028091CB02882329F481E083
:1006000080930A018093C2028091D10280931001ED
:100610008091CB028093110181E08093C5029F916C
:100620008F910F900FBE0F901F9018951F920F92F1
:100630000FB60F9211248F939F9389B18093C602B6
:1006400086B18093C7028091C60288708093CE02E3
:100650008091C70282708093D4028091C70281701A
:100660008093D1028091C60284708093CB029091D6
:10067000CE0280910E01981739F49091D4028091A6
:100680000F01981709F463C090910C01913081F427
:100690008091CE02882329F082E080930C01909310
:1006A000C3028091D402882309F446C084E029C0A3
:1006B00080910C01823091F48091CE02882329F43C
:1006C00081E080930C011092C3028091D4028823B0
:1006D00099F183E080930C0181E02CC080910C01A2
:1006E0008330A1F48091CE02882331F484E080939A
:1006F0000C0181E08093C3028091D4028823E1F44D
:1007000082E080930C011092C30216C080910C010C
:10071000843091F48091CE02882329F083E0809385
:100720000C011092C3028091D402882329F481E045
:1007300080930C018093C3028091CE0280930E01BE
:100740008091D40280930F0181E08093C402909144
:10075000D10280911001981739F49091CB028091C9
:100760001101981709F463C090910A01913081F446
:100770008091D102882329F082E080930A0190932E
:10078000C2028091CB02882309F446C084E029C0CC
:1007900080910A01823091F48091D102882329F45A
:1007A00081E080930A011092C2028091CB028823DB
:1007B00099F183E080930A0181E02CC080910A01C5
:1007C0008330A1F48091D102882331F484E08093B6
:1007D0000A0181E08093C2028091CB028823E1F478
:1007E00082E080930A011092C20216C080910A0131
:1007F000843091F48091D102882329F083E08093A2
:100800000A011092C2028091CB02882329F481E070
:1008100080930A018093C2028091D10280931001DB
:100820008091CB028093110181E08093C5029F915A
:100830008F910F900FBE0F901F901895CF92DF925F
:10084000EF92FF920F931F930E94BA000E94ED0057
:100850008BB18C608BB988B1836088B98091680056
:100860008460809368008091680082608093680053
:1008700080916D008C6080936D0080916C0083602E
:1008800080936C0086B1827080930E0189B188706C
:1008900080930F0189B184708093100186B18170BB
:1008A00080931101789488EC92E069EC72E00E94E8
:1008B0003C068091C402882341F01092C4028091CA
:1008C000C3026DE071E00E947D018091C502882322
:1008D00041F01092C5028091C2026BE071E00E946B
:1008E000300180E262E171E041E050E020E030E080
:1008F00000E010E0B9EDEB2EB2E0FB2EA2E0CA2E34
:10090000D12C0E946F0580E263E171E041E050E08C
:1009100020E030E0FFECEF2EF2E0FF2E0E946F05AA
:1009200080E264E171E041E050E020E030E0ECEC96
:10093000EE2EE2E0FE2E0E946F0580E265E171E09E
:1009400041E050E020E030E092EDE92E92E0F92E17
:100950000E946F0589ED92E06FEC72E04CEC52E082
:1009600097010E94BE046093D5027093D6028093D3
:10097000D7029093D8020E9461069BCF2F923F929C
:100980004F925F926F927F928F929F92AF92BF929F
:10099000CF92DF92EF92FF920F931F93CF93DF934B
:1009A0007C01EB01FA018901718160E0208130E076
:1009B000622B732B80E090E00E94850B1B012C01C1
:1009C000F801718160E0208130E0622B732B80E0C0
:1009D00090E00E94850B3B014C01F701718160E0C2
:1009E000208130E0622B732B80E090E00E94850B29
:1009F0007B018C01C201B1012BE734E14EE050ECE8
:100A00000E9479099B01AC01C801B7010E944C0901
:100A10007B018C01C401B30121E73DE34AEA5FEBAE
:100A20000E9479099B01AC01C801B7010E944C09E1
:100A30002CE534ED4EE05AE30E9479095B016C012C
:100A4000798160E0288130E0622B732B80E090E0B8
:100A50000E94850B7B018C01C201B1012DEC3CECA5
:100A60004CE350EC0E9479099B01AC01C801B7012D
:100A70000E944C097B018C01C401B30120E030E0ED
:100A800040EE5FEB0E9479099B01AC01C801B70100
:100A90000E944C0925E033EB40E25AE30E947909B9
:100AA0009B01AC01C601B5010E944C0920E030E079
:100AB00040E05FE30E947909DF91CF911F910F9190
:100AC000FF90EF90DF90CF90BF90AF909F908F906E
:100AD0007F906F905F904F903F902F900895BF92BE
:100AE000CF92DF92EF92FF920F931F93CF93DF93FA
:100AF000B82EFB01D901E7014115510531F401156B
:100B0000110519F490E080E054C084EA8093BC00A1
:100B10008091BC0087FFFCCF9091B900987F9830FE
:100B200009F09FC08B2D8E7F8093BB0084E880935B
:100B3000BC008091BC0087FFFCCF9091B900987FEA
:100B40009831B1F0903209F08CC088C080818093D8
:100B5000BB002093BC008091BC0087FFFCCF90912C
:100B6000B900987F415050409832C9F4319601C085
:100B700024E84115510551F716C08C918093BB00B4
:100B80002093BC008091BC0087FFFCCF9091B900FE
:100B9000987F01501040983211F4119605C090339F
:100BA00009F05FC05BC024E80115110531F791E041
:100BB00081E0C114D10409F44EC0882311F428E067
:100BC00001C020E184EA8093BC008091BC0087FFD3
:100BD000FCCF9091B900987F921709F042C081E054
:100BE000B82AB092BB0084E88093BC008091BC001E
:100BF00087FFFCCF9091B900987F903419F098341A
:100C000081F52CC00894C108D10824EC11C02093B0
:100C1000BC008091BC0087FFFCCF9091B900987F09
:100C20000894C108D1089035E1F48091BB00899304
:100C3000C114D10461F784E88093BC008091BC00AA
:100C400087FFFCCF9091B900987F983551F480913F
:100C5000BB00888302C0992321F090E084E980934F
:100C6000BC00892FDF91CF911F910F91FF90EF90E2
:100C7000DF90CF90BF900895CF92DF92EF92FF92D6
:100C80000F931F93AC019B0180E2BA0141E050E059
:100C900002E010E0EE24FF24CC24DD240E946F0546
:100CA0001092B9008DE18093B8001F910F91FF90D1
:100CB000EF90DF90CF9008951092B9008093B80024
:100CC0000895EF92FF920F931F937B018C0183E0B5
:100CD00069E00E948900C801B70120E030E040E0EF
:100CE00050E00E94A30A88232CF480914301909144
:100CF00044011DC0C801B7012DEC3CEC4CE45FE39E
:100D00000E94A30A88232CF480914501909146010A
:100D10000EC0C801B7012DEC3CEC4CE45FE30E942F
:100D2000730A882334F080914701909148010E9412
:100D3000AD001F910F91FF90EF900895AF92BF9279
:100D4000CF92DF92EF92FF920F931F936B017C0182
:100D500083E06AE00E948900C701B6010E94310B5E
:100D60002DB73EB7285030400FB6F8943EBF0FBEA7
:100D70002DBF0DB71EB70F5F1F4F8DEDA82E82E060
:100D8000B82EEDB7FEB7B282A18227E131E0F801BB
:100D90003383228375836483882777FD8095982F1A
:100DA0000E94D30A9B01AC01C701B6010E941B0936
:100DB00020E030E543EC57E40E9479090E94310BB2
:100DC000F801778366830E94820E2DB73EB7285FB5
:100DD0003F4F0FB6F8943EBF0FBE2DBFC5010E9416
:100DE000AD001F910F91FF90EF90DF90CF90BF90DB
:100DF000AF900895AF92BF92CF92DF92EF92FF92A1
:100E00000F931F936B017C0183E069E00E948900CE
:100E1000C701B6010E94310B2DB73EB728503040B4
:100E20000FB6F8943EBF0FBE2DBF0DB71EB70F5FB4
:100E30001F4F9DEDA92E92E0B92EEDB7FEB7B282FD
:100E4000A18227E131E0F801338322837583648333
:100E5000882777FD8095982F0E94D30A9B01AC01CB
:100E6000C701B6010E941B0920E030E543EC57E4BE
:100E70000E9479090E94310BF801778366830E94F2
:100E8000820E2DB73EB7285F3F4F0FB6F8943EBF96
:100E90000FBE2DBFC5010E94AD001F910F91FF90A5
:100EA000EF90DF90CF90BF90AF900895AF92BF9238
:100EB000CF92DF92EF92FF920F931F939C015B0101
:100EC00080E2B90141E050E020E030E000E010E0D5
:100ED0007501E2E0CE2ED12C0E946F0583E06FE019
:100EE0000E9489008DB79EB708970FB6F8949EBFF1
:100EF0000FBE8DBFEDB7FEB731960DED12E0ADB769
:100F0000BEB712961C930E93119734E0C32ED12CCA
:100F1000D382C2822FE1E22E21E0F22EF582E4821A
:100F2000D5018C91868317820E94510E8DB79EB792
:100F300008960FB6F8949EBF0FBE8DBFC8010E94E1
:100F4000AD00ADB7BEB718970FB6F894BEBF0FBED1
:100F5000ADBFEDB7FEB7319612961C930E93119765
:100F6000D382C282F582E482D50111968C91868368
:100F700017820E94510E8DB79EB708960FB6F8944F
:100F80009EBF0FBE8DBFC8010E94AD001F910F9183
:100F9000FF90EF90DF90CF90BF90AF900895A0E0CA
:100FA000B0E0E5EDF7E00C941A0EDC012B01FA013C
:100FB0009C91923008F439C1EB018881823008F4A9
:100FC00033C1943069F4843009F02FC111969C919B
:100FD00011978981981709F428C1A1E9B1E025C1C9
:100FE000843009F421C18230A9F4923009F01DC186
:100FF0009A01AD0188E0EA010990AE01E901099288
:101000009E018150C1F7E201898111969C9189234B
:10101000818308C1923009F407C112962D903C904B
:101020001397EB018A819B811496AD90BD90CD9072
:10103000DC901797EC80FD800E811F819101281BA9
:10104000390BB90137FF04C066277727621B730B82
:10105000603271050CF061C0121613066CF5370191
:101060004801062E04C096948794779467940A9456
:10107000D2F721E030E040E050E004C0220F331FFF
:10108000441F551F6A95D2F72150304040405040D0
:101090002E213F21402351232115310541055105C2
:1010A00021F021E030E040E050E079018A01E628BB
:1010B000F728082919293CC0232BD1F1260E371E09
:1010C00035014601062E04C0969487947794679460
:1010D0000A94D2F721E030E040E050E004C0220F53
:1010E000331F441F551F6A95D2F7215030404040AE
:1010F00050402A213B214C215D212115310541051C
:10110000510521F021E030E040E050E059016A0152
:10111000A628B728C828D9280BC0821593052CF01B
:101120001C01AA24BB24650103C0EE24FF2487010F
:1011300011969C91D20111968C91981709F445C093
:10114000992339F0A80197012A193B094C095D0937
:1011500006C0A60195012E193F09400B510B57FD02
:1011600008C01182338222822483358346835783C9
:101170001DC081E081833382228288279927DC0188
:10118000821B930BA40BB50B84839583A683B78333
:101190000DC0220F331F441F551F24833583468300
:1011A0005783828193810197938382832481358140
:1011B00046815781DA01C9010197A109B1098F5F01
:1011C0009F4FAF4FBF4328F30BC0918333822282DE
:1011D000EA0CFB1C0C1D1D1DE482F582068317839F
:1011E00083E08083248135814681578157FF1AC06F
:1011F000C901AA2797FDA095BA2F81709070A070A1
:10120000B0705695479537952795822B932BA42B35
:10121000B52B84839583A683B783828193810196BE
:1012200093838283DF0101C0D201CD01CDB7DEB748
:10123000E2E10C94360EA0E2B0E0E1E2F9E00C94B9
:10124000260E69837A838B839C832D833E834F8311
:101250005887E9E0EE2EF12CEC0EFD1ECE01019632
:10126000B7010E94220D8E010F5E1F4FCE01059621
:10127000B8010E94220D8A8991E089278A8BC701D3
:10128000B801AE01475E5F4F0E94CF070E944D0C30
:10129000A096E6E00C94420EA0E2B0E0E2E5F9E0B0
:1012A0000C94260E69837A838B839C832D833E83E3
:1012B0004F835887F9E0EF2EF12CEC0EFD1ECE0186
:1012C0000196B7010E94220D8E010F5E1F4FCE01C5
:1012D0000596B8010E94220DC701B801AE01475E14
:1012E0005F4F0E94CF070E944D0CA096E6E00C9441
:1012F000420EA0E2B0E0EFE7F9E00C941A0E698329
:101300007A838B839C832D833E834F835887CE01C2
:101310000196BE01675F7F4F0E94220DCE010596A8
:10132000BE016F5E7F4F0E94220D9985923088F03A
:1013300089898230C8F0943019F4823051F404C0A5
:10134000843029F4923081F481E991E0C6C0923072
:1013500049F420E09A858A89981321E02A87CE01F2
:101360000996BBC0823049F420E09A858A89981397
:1013700021E02A8BCE014196B0C02D843E844F845B
:1013800058886D887E888F88988CEE24FF2487018A
:10139000AA24BB24650140E050E060E070E0E0E09A
:1013A000F0E0C10181709070892BE9F0E60CF71C28
:1013B000081D191D9A01AB012A0D3B1D4C1D5D1D19
:1013C00080E090E0A0E0B0E0E614F704080519051D
:1013D00020F481E090E0A0E0B0E0BA01A901480F5C
:1013E000591F6A1F7B1FAA0CBB1CCC1CDD1C97FE5F
:1013F00008C081E090E0A0E0B0E0A82AB92ACA2A9B
:10140000DB2A3196E032F10549F0660C771C881C26
:10141000991C5694479437942794C3CFFA85EA8948
:101420002B893C898B859C85280F391F2E5F3F4F68
:1014300017C0CA0181709070892B61F016950795CD
:10144000F794E79480E090E0A0E0B0E8E82AF92A79
:101450000A2B1B2B76956795579547952F5F3F4F26
:1014600077FDE7CF0CC0440F551F661F771F17FD90
:101470004160EE0CFF1C001F111F21503040403016
:1014800090E0590790E0690790E4790760F32B8FAB
:101490003C8FDB01CA018F779070A070B0708034F0
:1014A0009105A105B10561F447FD0AC0E114F104FD
:1014B0000105110529F0405C5F4F6F4F7F4F407869
:1014C0001A8EFE1711F081E08A8F4D8F5E8F6F8F1D
:1014D00078A383E0898FCE0149960E944D0CA09697
:1014E000E2E10C94360EA8E1B0E0E9E7FAE00C94F2
:1014F000260E69837A838B839C832D833E834F835F
:10150000588789E0E82EF12CEC0EFD1ECE010196E5
:10151000B7010E94220D8E010F5E1F4FCE0105966E
:10152000B8010E94220D8985823040F0898982307D
:1015300028F0C701B8010E949A0D01C08FEF68968C
:10154000E6E00C94420EA8E1B0E0E9EAFAE00C947F
:10155000260E69837A838B839C832D833E834F83FE
:10156000588789E0E82EF12CEC0EFD1ECE01019685
:10157000B7010E94220D8E010F5E1F4FCE0105960E
:10158000B8010E94220D8985823040F0898982301D
:1015900028F0C701B8010E949A0D01C081E0689649
:1015A000E6E00C94420EA8E0B0E0E9EDFAE00C941D
:1015B000230E9B01AC0183E08983DA01C9018827EE
:1015C000B7FD83959927AA27BB27B82E211531058A
:1015D0004105510519F482E089833AC08823A9F0B6
:1015E000203080E0380780E0480780E8580729F479
:1015F00060E070E080E09FEC30C0EE24FF248701C3
:10160000E21AF30A040B150B02C079018A018EE17C
:10161000C82ED12CDC82CB82ED82FE820F8318870C
:10162000C801B7010E94FE0B01971816190684F431
:10163000082E04C0EE0CFF1C001F111F0A94D2F7E5
:10164000ED82FE820F831887C81AD90ADC82CB820A
:10165000BA82CE0101960E944D0C2896E9E00C94C6
:101660003F0EACE0B0E0E7E3FBE00C942A0E6983A8
:101670007A838B839C83CE010196BE016B5F7F4F83
:101680000E94220D8D81823061F1823050F18430D0
:1016900021F48E81882351F12EC02F81388537FDAA
:1016A00020C06E812F3131051CF06623F9F023C074
:1016B0008EE190E0821B930B29853A854B855C85F2
:1016C00004C056954795379527958A95D2F7662396
:1016D000B1F050954095309521953F4F4F4F5F4F5A
:1016E0000EC020E030E040E050E009C02FEF3FEFB7
:1016F0004FEF5FE704C020E030E040E050E8B90180
:10170000CA012C96E2E00C94460EA8E0B0E0EBE8AB
:10171000FBE00C94220E7B018C01611571058105A3
:10172000910519F482E0898360C083E089838EE1AA
:10173000C82ED12CDC82CB82ED82FE820F831887EB
:10174000C801B7010E94FE0BFC013197F7FF3BC0B7
:10175000222733272E1B3F0B57016801022E04C09E
:10176000D694C794B794A7940A94D2F740E050E077
:1017700060E070E081E090E0A0E0B0E004C0880F9D
:10178000991FAA1FBB1F2A95D2F70197A109B1097A
:101790008E219F21A023B1230097A105B10521F03F
:1017A00041E050E060E070E04A295B296C297D2926
:1017B0004D835E836F8378878EE190E08E1B9F0B55
:1017C0009C838B8312C0309781F00E2E04C0EE0CE8
:1017D000FF1C001F111F0A94D2F7ED82FE820F83B7
:1017E0001887CE1ADF0ADC82CB821A82CE010196DC
:1017F0000E944D0C2896EAE00C943E0EEF92FF9268
:101800000F931F937B018C0180E0E81680E0F806BF
:1018100081E0080780E0180788F48FEFE816F104EC
:101820000105110531F028F088E090E0A0E0B0E07B
:1018300017C080E090E0A0E0B0E012C080E0E816C1
:1018400080E0F80680E0080781E0180728F088E1CA
:1018500090E0A0E0B0E004C080E190E0A0E0B0E063
:1018600020E230E040E050E0281B390B4A0B5B0BD4
:1018700004C016950795F794E7948A95D2F7F70177
:10188000E756FE4F8081281B310941095109C901E2
:101890001F910F91FF90EF900895DF92EF92FF92CA
:1018A0000F931F93FC01E480F58006811781D1809E
:1018B0008081823048F480E090E0A0E1B0E0E82A46
:1018C000F92A0A2B1B2BA5C0843009F49FC0823053
:1018D00021F4EE24FF24870105C0E114F104010581
:1018E000110519F4E0E0F0E096C0628173819FEF8A
:1018F000623879070CF05BC022E83FEF261B370BFC
:101900002A3131052CF020E030E040E050E02AC0E0
:10191000B801A701022E04C07695679557954795A3
:101920000A94D2F781E090E0A0E0B0E004C0880F14
:10193000991FAA1FBB1F2A95D2F70197A109B109C8
:101940008E219F21A023B1230097A105B10521F08D
:1019500081E090E0A0E0B0E09A01AB01282B392BA8
:101960004A2B5B2BDA01C9018F779070A070B070A1
:1019700080349105A105B10539F427FF09C0205C29
:101980003F4F4F4F5F4F04C0215C3F4F4F4F5F4F62
:10199000E0E0F0E02030A0E03A07A0E04A07A0E451
:1019A0005A0710F0E1E0F0E079018A0127C06038C1
:1019B000710564F5FB01E158FF4FD801C7018F772E
:1019C0009070A070B07080349105A105B10539F414
:1019D000E7FE0DC080E490E0A0E0B0E004C08FE33B
:1019E00090E0A0E0B0E0E80EF91E0A1F1B1F17FFF1
:1019F00005C016950795F794E794319687E01695FC
:101A00000795F794E7948A95D1F705C0EE24FF2453
:101A10008701EFEFF0E06E2F679566276795902FAF
:101A20009F77D794DD24D7948E2F8695492F462B08
:101A3000582F5D29B701CA011F910F91FF90EF90B8
:101A4000DF900895FC01DB01408151812281622FEA
:101A50006F7770E0221F2227221F9381892F880F22
:101A6000822B282F30E0991F9927991F11969C935C
:101A7000119721153105A9F541155105610571052C
:101A800011F482E037C082E89FEF13969C938E9307
:101A900012979A01AB0167E0220F331F441F551FB5
:101AA0006A95D1F783E08C930DC0220F331F441F3A
:101AB000551F12968D919C911397019713969C93A5
:101AC0008E931297203080E0380780E0480780E44A
:101AD000580758F314962D933D934D935C931797A5
:101AE00008952F3F310579F44115510561057105C0
:101AF00019F484E08C93089564FF03C081E08C9313
:101B000012C01C9210C02F57304013963C932E9356
:101B1000129783E08C9387E0440F551F661F771F51
:101B20008A95D1F7706414964D935D936D937C9371
:101B3000179708951F93DC01FB019C91923008F4E4
:101B400047C08081823008F443C0943051F411962C
:101B50001C91843099F58181682F70E0611B7109B7
:101B60003FC0843021F0923031F48230B9F181816C
:101B7000882389F12DC011961C9111978230F1F0C4
:101B800081811817D9F412962D913C911397828177
:101B900093818217930794F028173907BCF01496A5
:101BA0008D919D910D90BC91A02D24813581468110
:101BB0005781281739074A075B0718F4112341F0AA
:101BC0000AC082179307A407B50740F4112319F040
:101BD00061E070E005C06FEF7FEF02C060E070E091
:101BE000CB011F91089597FB092E07260AD077FD98
:101BF00004D00CD006D000201AF4709561957F4F68
:101C00000895F6F7909581959F4F0895AA1BBB1BE9
:101C100051E107C0AA1FBB1FA617B70710F0A61BEC
:101C2000B70B881F991F5A95A9F780959095BC010D
:101C3000CD0108952F923F924F925F926F927F92C3
:101C40008F929F92AF92BF92CF92DF92EF92FF92CC
:101C50000F931F93CF93DF93CDB7DEB7CA1BDB0B78
:101C60000FB6F894DEBF0FBECDBF09942A8839881D
:101C700048885F846E847D848C849B84AA84B98424
:101C8000C884DF80EE80FD800C811B81AA81B98130
:101C9000CE0FD11D0FB6F894DEBF0FBECDBFED0144
:101CA0000895AEE0B0E0E7E5FEE00C94280E0D8963
:101CB0001E898F89988D97FF02C080E090E8019778
:101CC0009E838D831A83098386E08C839E01255E23
:101CD0003F4FCE010196698D7A8DA9010E94A60E13
:101CE0004D815E8157FD0AC02F8138854217530709
:101CF0000CF49A01020F131FF80110822E96E4E0F3
:101D00000C94440EAEE0B0E0E8E8FEE00C94280E3F
:101D10000D891E8986E08C831A8309838FEF9FE7E4
:101D20009E838D839E01275E3F4FCE0101966F8972
:101D3000788DA9010E94A60E2F813885020F131FEE
:101D4000F80110822E96E4E00C94440EABE0B0E073
:101D5000ECEAFEE00C941A0E3C012B015A01FC0146
:101D600017821682838181FD03C06FEF7FEFC6C1AA
:101D70009AE0892E1E010894211C311CF301238155
:101D8000F20123FD859123FF81912F01882309F41E
:101D9000B2C1853239F423FD859123FF81912F0152
:101DA000853229F490E0B3010E949910E7CF982F73
:101DB000FF24EE249924FFE1FF15D0F09B3269F057
:101DC0009C3228F4903259F0933291F40EC09D3237
:101DD00049F0903369F441E024C052E0F52A84E0F0
:101DE000F82A28C098E0F92A25C0E0E1FE2A22C09E
:101DF000F7FC29C0892F80538A3070F4F6FE05C0A5
:101E0000989C902C1124980E15C0E89CE02C11246D
:101E1000E80EF0E2FF2A0EC09E3229F4F6FC6BC1F8
:101E200040E4F42A07C09C3619F450E8F52A02C0B1
:101E3000983649F4F20123FD959123FF91912F01EA
:101E4000992309F0B8CF892F8554833018F0805238
:101E5000833038F444E050E0A40EB51E5FE35983AC
:101E60000FC0933631F0933779F0933509F056C0AF
:101E700020C0F5018081898342E050E0A40EB51EA8
:101E8000610101E010E012C0F501C080D180F6FCD4
:101E900003C06FEF7FEF02C0692D70E042E050E0B9
:101EA000A40EB51EC6010E948E108C015FE7F522BC
:101EB00014C0F501C080D180F6FC03C06FEF7FEF46
:101EC00002C0692D70E042E050E0A40EB51EC601CC
:101ED0000E9483108C0150E8F52AF3FE07C01AC057
:101EE00080E290E0B3010E949910EA948E2D90E078
:101EF00008171907A8F30EC0F601F7FC8591F7FE45
:101F000081916F0190E0B3010E949910E110EA9471
:101F1000015010400115110579F7EAC0943611F00F
:101F2000993669F5F7FE08C0F501208131814281BB
:101F3000538184E090E00AC0F501808191819C0189
:101F4000442737FD4095542F82E090E0A80EB91E3B
:101F50009FE6F92257FF09C050954095309521958D
:101F60003F4F4F4F5F4FE0E8FE2ACA01B901A10180
:101F70002AE030E00E94C510D82ED21840C0953714
:101F800029F41F2D1F7E2AE030E01DC01F2D197F70
:101F90009F3661F0903720F4983509F0ACC00FC03F
:101FA000903739F0983709F0A6C004C028E030E037
:101FB0000AC0106114FD146020E130E004C014FD7B
:101FC000166020E132E017FF08C0F50160817181E1
:101FD0008281938144E050E008C0F50180819181C5
:101FE000BC0180E090E042E050E0A40EB51EA101EB
:101FF0000E94C510D82ED2188FE7F82EF122F6FED7
:102000000BC05EEFF522D91438F4F4FE07C0F2FCE1
:1020100005C08FEEF82202C01D2D01C0192DF4FE5F
:102020000DC0FE01ED0DF11D8081803319F499EE94
:10203000F92208C01F5FF2FE05C003C08F2D86780D
:1020400009F01F5F0F2DF3FC14C0F0FE0FC01E152A
:1020500010F09D2C0BC09D2C9E0C911A1E2D06C0BD
:1020600080E290E0B3010E9499101F5F1E15C0F33B
:1020700004C01E1510F4E11A01C0EE2404FF0FC0C5
:1020800080E390E0B3010E94991002FF1DC001FDA2
:1020900003C088E790E00EC088E590E00BC0802F79
:1020A000867891F001FF02C08BE201C080E2F7FC6C
:1020B0008DE290E0B3010E94991006C080E390E0A9
:1020C000B3010E9499109A94D914C0F3DA94F101E3
:1020D000ED0DF11D808190E0B3010E949910DD208B
:1020E000A9F706C080E290E0B3010E949910EA943B
:1020F000EE20C1F743CEF30166817781CB012B96A9
:10210000E2E10C94360EFC01059061507040011024
:10211000D8F7809590958E0F9F1F0895FC01615010
:10212000704001900110D8F7809590958E0F9F1FF9
:1021300008950F931F93CF93DF938C01EB018B8155
:1021400081FF1BC082FF0DC02E813F818C819D814C
:102150002817390764F4E881F9810193F983E8834A
:1021600006C0E885F985802F0995892B31F48E8189
:102170009F8101969F838E8302C00FEF1FEFC801DE
:10218000DF91CF911F910F910895FA01AA2728306E
:1021900051F1203181F1E8946F936E7F6E5F7F4F34
:1021A0008F4F9F4FAF4FB1E03ED0B4E03CD0670FB0
:1021B000781F891F9A1FA11D680F791F8A1F911D03
:1021C000A11D6A0F711D811D911DA11D20D009F453
:1021D00068943F912AE0269F11243019305D319395
:1021E000DEF6CF010895462F4770405D4193B3E07E
:1021F0000FD0C9F7F6CF462F4F70405D4A3318F025
:10220000495D31FD4052419302D0A9F7EACFB4E0D5
:10221000A6959795879577956795BA95C9F700978D
:102220006105710508959B01AC010A2E069457952E
:10223000479537952795BA95C9F7620F731F841F85
:0A224000951FA01D0895F894FFCF2C
:10224A00AB02B002B402BD02B8020132013203038A
:10225A00030307090A0B0C25642E30302564002578
:10226A003364006E6F20555620726179730073686B
:10227A0061647920202020200073756E6E792020F9
:10228A0020200023012E0139010000803F00008038
:10229A003F0000803F0000803F7B140E40713DAA42
:1022AA003FCDCC3C400000E03FF025113BF99E9128
:1022BA003A5CD40E3A4D069A39500A1E39DD4E233D
:1022CA003B0AD7A33A05B3203A864BAD3927D0311A
:1022DA0039000000000000000000010202030303AD
:1022EA00030404040404040404050505050505059E
:1022FA00050505050505050505060606060606067D
:10230A000606060606060606060606060606060663
:10231A00060606060606060606070707070707074C
:10232A000707070707070707070707070707070733
:10233A000707070707070707070707070707070723
:10234A000707070707070707070707070707070713
:10235A0007070707070707070708080808080808FC
:10236A0008080808080808080808080808080808E3
:10237A0008080808080808080808080808080808D3
:10238A0008080808080808080808080808080808C3
:10239A0008080808080808080808080808080808B3
:1023AA0008080808080808080808080808080808A3
:1023BA000808080808080808080808080808080893
:1023CA000808080808080808080808080808080883
:1023DA000808080808080808080040145425336447
:1023EA0000202020202020202020007665727920DD
:1023FA006472790061766700766572792064616D2E
:02240A00700060
:00000001FF
