:100000000C9449000C9466000C9466000C9420013A
:100010000C9466000C9466000C9466000C946600C8
:100020000C9466000C9466000C9466000C946600B8
:100030000C9466000C9466000C9466000C946600A8
:100040000C9466000C9466000C9466000C94660098
:100050000C9466000C9466000C9466000C94660088
:100060000C9466000C94660055563A200048756D55
:1000700069646974793A200054656D7065726174C1
:100080007572653A20004D6F6973747572653A2018
:10009000000011241FBECFEFD8E0DEBFCDBF11E0BE
:1000A000A0E0B1E0E8EBF9E002C005900D92A232C9
:1000B000B107D9F721E0A2E2B1E001C01D92A73259
:1000C000B207E1F70E94CF010C94DA040C9400000F
:1000D0009BB19F709BB99BB1807F892B8BB985B1F8
:1000E000837F85B92A9A2A9A2A980895CF93C82F90
:1000F0000E9468008C2F8295807FCF910C946800BD
:100100002C980E94760086E69EE00197F1F70000A9
:100110000895843048F4E82FF0E0E55EFE4F8081DA
:10012000860F80680C94800080E3FACF2C9A0E949E
:10013000760086E69EE00197F1F700000895CF93E0
:10014000DF93EC01FE0184912196811103C0DF91C0
:10015000CF9108950E949600F5CFCF93DF93EC01E5
:100160008991811103C0DF91CF9108950E9496007B
:10017000CE01F5CF8AB1806F8AB984B18C6184B920
:100180002C988FEF9BE60197F1F700C0000080E309
:100190000E9468008FEF93E20197F1F700C0000022
:1001A00080E30E9468008DED90E00197F1F780E315
:1001B0000E94680086E69EE00197F1F7000080E269
:1001C0000E94680086E69EE00197F1F7000088E251
:1001D0000E9480008FE00C9480000E94BA0081E0B1
:1001E0000E9480008CE00E94800060E080E00E941D
:1001F000890086E890E00E949F0060E081E00E9414
:10020000890088E790E00E949F0060E082E00E9401
:1002100089008DE690E00E949F0060E083E00E94EC
:10022000890080E091E00C94AD0086E69EE00197A5
:10023000F1F70000089581E084B990E080E008952E
:100240001F920F920FB60F9211242F933F934F934B
:100250005F936F937F938F939F93AF93BF93EF932E
:10026000FF9380911A01813009F045C01B9B05C0A6
:1002700092E090931A01809322011D9B05C084E0B7
:1002800080931A01109222018091220181116FC086
:1002900080911901811165C01092190160E083E01D
:1002A0000E948900809119011F928F938FE191E044
:1002B0009F938F9383E291E09F938F930E9411020B
:1002C00083E291E00E94AD000F900F900F900F908D
:1002D0000F900F90FF91EF91BF91AF919F918F91F0
:1002E0007F916F915F914F913F912F910F900FBE32
:1002F0000F901F90189580911A01823081F41B99FC
:1003000005C081E080931A01109222011D9BBCCF91
:1003100083E080931A0181E080932201B5CF809120
:100320001A01833061F41B9906C084E080931A019E
:1003300081E0809322011D99A7CF82E0A1CF809117
:100340001A01843009F0A0CF1B9B05C083E0809385
:100350001A01109222011D9997CF81E080931A0112
:10036000DBCF8091190181508093190197CF809143
:100370001901893110F089E1F7CF809119018F5F60
:10038000F3CF05966AE070E00E94E90161507109BF
:1003900008F4089588E18A95F1F700C0F7CF0E942C
:1003A000BA000E94ED00EFE6F0E080818260808379
:1003B000789485B1886285B9E8E6F0E08081816053
:1003C0008083EBE6F0E080818862808390E080E0CB
:1003D000089597FB072E16F4009407D077FD09D0F7
:1003E0000E94FD0107FC05D03EF4909581959F4F3A
:1003F0000895709561957F4F0895AA1BBB1B51E12D
:1004000007C0AA1FBB1FA617B70710F0A61BB70B84
:10041000881F991F5A95A9F780959095BC01CD0129
:100420000895AEE0B0E0E7E1F2E00C94B1040D898C
:100430001E8986E08C831A8309838FEF9FE79E8352
:100440008D83AE01475E5F4F6F89788DCE01019637
:100450000E9434022F813885020F131FF801108289
:100460002E96E4E00C94CD04ABE0B0E0EAE3F2E0D9
:100470000C94A3047C013B018A01FC0117821682C3
:10048000838181FFB9C19AE0292ECE0101965C01DA
:10049000F7019381F30193FD859193FF81913F01D2
:1004A000882309F446C1853239F493FD859193FF81
:1004B00081913F01853229F4B70190E00E94150433
:1004C000E7CF912C412C512CFFE1F51538F08B3200
:1004D00009F188F4803201F1833221F157FC3AC0EE
:1004E00020ED280F2A3040F556FE1FC0929C200DAB
:1004F0001124922E06C08D3291F0803379F76894E2
:1005000050F8F30193FD859193FF81913F01811193
:10051000DBCF20C0689451F8689452F8F2CF689409
:1005200053F8EFCF689454F8ECCF429C200D11247F
:10053000422E689455F8E5CF8E3229F456FCF9C066
:10054000689456F8DECF8C3619F4689457F8D9CFF2
:100550008836B9F2982F9F7D95549330C0F083363A
:10056000A1F18337C1F1833509F05BC0F801C19077
:10057000D1908F01692D70E056FC02C06FEF7FEFC4
:10058000C6010E94FF034C01689457F80AC00C5F33
:100590001F4F2FE3298388248394912C6501E894CD
:1005A00057F853FC04C04814190409F018F5342C0A
:1005B0008114910431F5332009F46ACFB70180E248
:1005C00090E00E9415043A94F6CFF8018081898367
:1005D0000E5F1F4FE0CFF801C190D1908F01692DC0
:1005E00070E056FC02C06FEF7FEFC6010E940A0464
:1005F0004C01D5CFB70180E290E00E9415044A94E7
:10060000D2CFF60157FC859157FE81916F01B7015A
:1006100090E00E94150431103A94F1E08F1A91088D
:10062000C7CF843619F0893609F074C0F80157FE37
:100630006AC061917191819191918F01252D2F76E1
:10064000D22E97FF09C090958095709561957F4F48
:100650008F4F9F4F6894D7F82AE030E0A5010E94A1
:100660004504C82ECA188C2C5D2CD6FE0CC0E8940C
:1006700050F8C91440F4D4FE05C0D2FC03C0FD2DCF
:10068000FE7E5F2E892C54FE8FC0FE01EC0DF11D05
:100690008081803309F081C0252D297E522E852D41
:1006A0008870382E53FC8FC050FE89C09C2C841457
:1006B00018F44C0C942C981854FE8BC0B70180E3AE
:1006C00090E00E94150452FE09C088E790E051FEB8
:1006D00002C088E590E0B7010E941504C91408F42F
:1006E00084C0CA94D12C9FEFC91AD90ACA0CDB1C4A
:1006F000F60182916F01B70190E00E941504AC14DD
:10070000BD04B1F758CF61917191072E000C880B91
:10071000990B93CFD52CE894D4F82AE030E08537B4
:1007200039F1952D997FD92E8F3601F148F488350E
:10073000A9F0F701868197812B96E2E10C94BF0422
:10074000803749F08837A9F7D4FE02C06894D2F800
:1007500020E130E00DC06894D4F8F6CF54FE03C019
:10076000E92FE660DE2E20E132E002C028E030E032
:10077000F801D7FE0DC061917191819191918F0126
:10078000A5010E944504C82ECA18E894D7F86BCF7B
:100790006191719190E080E0F2CF52FC02C08394AD
:1007A0007ECF839483947BCF852D867809F477CF91
:1007B000F6CFB70180E290E00E9415048394841480
:1007C000C0F3312C79CF342C3818841408F474CF4A
:1007D000F8CF852D867809F481CF8BE251FE80E237
:1007E00057FC8DE2B70190E077CFB70180E390E04E
:1007F0000E9415049A9472CF8FEF9FEF9DCFFC015A
:100800000590615070400110D8F7809590958E0F3B
:100810009F1F0895FC016150704001900110D8F7AE
:10082000809590958E0F9F1F08950F931F93CF93E0
:10083000DF93182F092FEB018B8181FD09C01FEF7A
:100840000FEF812F902FDF91CF911F910F9108957E
:1008500082FF14C02E813F818C819D81281739072A
:100860003CF4E881F981CF01019699838883108354
:100870008E819F8101969F838E83E3CFE885F985E2
:10088000812F0995892BA1F3DACFFA01AA27283005
:1008900051F1203181F1E8946F936E7F6E5F7F4F4D
:1008A0008F4F9F4FAF4FB1E03ED0B4E03CD0670FC9
:1008B000781F891F9A1FA11D680F791F8A1F911D1C
:1008C000A11D6A0F711D811D911DA11D20D009F46C
:1008D00068943F912AE0269F11243019305D3193AE
:1008E000DEF6CF010895462F4770405D4193B3E097
:1008F0000FD0C9F7F6CF462F4F70405D4A3318F03E
:10090000495D31FD4052419302D0A9F7EACFB4E0EE
:10091000A6959795879577956795BA95C9F70097A6
:100920006105710508959B01AC010A2E0694579547
:10093000479537952795BA95C9F7620F731F841F9E
:10094000951FA01D08952F923F924F925F926F9234
:100950007F928F929F92AF92BF92CF92DF92EF924F
:10096000FF920F931F93CF93DF93CDB7DEB7CA1BD0
:10097000DB0B0FB6F894DEBF0FBECDBF09942A88FB
:10098000398848885F846E847D848C849B84AA84A3
:10099000B984C884DF80EE80FD800C811B81AA8130
:1009A000B981CE0FD11D0FB6F894DEBF0FBECDBFFB
:0809B000ED010895F894FFCF5A
:1009B8003E3E205553432045453435394C203C3C78
:1009C80037383930313233340005010040145425AA
:0209D8006400B9
:00000001FF
