:100000000C9449000C9466000C9466000C946600F5
:100010000C940E020C9416030C9466000C9466006B
:100020000C9466000C9466000C9466000C946600B8
:100030000C9466000C9466000C9466000C946600A8
:100040000C9466000C9466000C9466000C94660098
:100050000C9466000C9466000C9466000C94660088
:100060000C9466000C94660055563A200048756D55
:1000700069646974793A200054656D7065726174C1
:100080007572653A20004D6F6973747572653A2018
:10009000000011241FBECFEFD8E0DEBFCDBF12E0BD
:1000A000A0E0B1E0E6E6F0E202C005900D92A23ACF
:1000B000B107D9F712E0A2EAB2E001C01D92AF3E4B
:1000C000B107E1F70E941E040C9431100C9400005B
:1000D0009BB19F709BB99BB1807F892B8BB985B1F8
:1000E000837F85B92A9A2A9A2A980895CF93C82F90
:1000F0000E9468008C2F8295807FCF910C946800BD
:100100002C980E94760086E69EE00197F1F70000A9
:100110000895843048F4E82FF0E0E758FD4F8081DF
:10012000860F80680C94800080E3FACF2C9A0E949E
:10013000760086E69EE00197F1F700000895CF93E0
:10014000DF93EC01FE0184912196811103C0DF91C0
:10015000CF9108950E949600F5CFCF93DF93EC01E5
:100160008991811103C0DF91CF9108950E9496007B
:10017000CE01F5CF8AB1806F8AB984B18C6184B920
:100180002C988FEF9BE60197F1F700C0000080E309
:100190000E9468008FEF93E20197F1F700C0000022
:1001A00080E30E9468008DED90E00197F1F780E315
:1001B0000E94680086E69EE00197F1F7000080E269
:1001C0000E94680086E69EE00197F1F7000088E251
:1001D0000E9480008FE00C9480000E94BA0081E0B1
:1001E0000E9480008CE00E94800060E080E00E941D
:1001F000890086E890E00E949F0060E081E00E9414
:10020000890088E790E00E949F0060E082E00E9401
:1002100089008DE690E00E949F0060E083E00E94EC
:10022000890088E690E00C949F0086E69EE00197A6
:10023000F1F700000895E0E0F8E43197F1F7089550
:100240003A9A40E058E428EB30E0CA010197F1F710
:1002500080E197E2F9013197F1F70197D9F7F5CFEE
:100260000F931F93CF93DF930F92CDB7DEB78983A0
:100270008B018981811132C08FEF97E40197F1F7EB
:1002800000C00000FB0180818B3028F58AE080836C
:100290006FE081E00E948900F80180811F928F93B6
:1002A0008DE792E09F938F931F9284E08F938DEB65
:1002B00092E09F938F930E945F0D0FB6F894DEBF7C
:1002C0000FBECDBF8DEB92E00F90DF91CF911F91CC
:1002D0000F910C94AD0080818A50D9CF8FEF97E4B5
:1002E0000197F1F700C00000FB018081883710F012
:1002F00088E7CDCF8081865FCACF0F931F93CF93BE
:10030000DF930F92CDB7DEB789838B01898181118D
:1003100048C08FEF97E40197F1F700C00000FB01A0
:10032000808181113AC010826AE080E00E948900D9
:1003300081E892E00E94AD006AE080E00E948900BE
:10034000F80180818531E0F58091000190910101F3
:100350000E94AD0061E180E00E948900F801808187
:100360001F928F938DE792E09F938F931F9284E06B
:100370008F938DEB92E09F938F930E945F0D0FB64A
:10038000F894DEBF0FBECDBF8DEB92E00F90DF91F2
:10039000CF911F910F910C94AD0080818A50808382
:1003A000C3CF8FEF97E40197F1F700C00000FB0186
:1003B0008081883710F088E7F2CF8081865FEFCFA9
:1003C0008081893228F48091020190910301C0CF8D
:1003D00080818D3328F48091040190910501B8CF7C
:1003E0008081813528F48091060190910701B0CF7A
:1003F00080818536C0F38091080190910901A8CFD2
:1004000005966AE070E00E94010D6150710908F4E0
:10041000089588E18A95F1F700C0F7CF1F920F92F7
:100420000FB60F9211248F939F9389B18093A602E8
:1004300086B18093A7028091A60288708093AE0255
:100440008091A70282708093B4028091A70281708C
:100450008093B1028091A60284708093AB02909148
:10046000AE0280910E01981739F49091B4028091F8
:100470000F01981709F463C090910C01913081F439
:100480008091AE02882329F082E080930C01909342
:10049000A3028091B402882309F446C084E029C0F5
:1004A00080910C01823091F48091AE02882329F46E
:1004B00081E080930C011092A3028091B402882302
:1004C00099F183E080930C0181E02CC080910C01B4
:1004D0008330A1F48091AE02882331F484E08093CC
:1004E0000C0181E08093A3028091B4028823E1F49F
:1004F00082E080930C011092A30216C080910C013F
:10050000843091F48091AE02882329F083E08093B7
:100510000C011092A3028091B402882329F481E097
:1005200080930C018093A3028091AE0280930E0110
:100530008091B40280930F0181E08093A402909196
:10054000B10280911001981739F49091AB0280911B
:100550001101981709F463C090910A01913081F458
:100560008091B102882329F082E080930A01909360
:10057000A2028091AB02882309F446C084E029C01E
:1005800080910A01823091F48091B102882329F48C
:1005900081E080930A011092A2028091AB0288232D
:1005A00099F183E080930A0181E02CC080910A01D7
:1005B0008330A1F48091B102882331F484E08093E8
:1005C0000A0181E08093A2028091AB028823E1F4CA
:1005D00082E080930A011092A20216C080910A0163
:1005E000843091F48091B102882329F083E08093D4
:1005F0000A011092A2028091AB02882329F481E0C3
:1006000080930A018093A2028091B102809310012D
:100610008091AB028093110181E08093A5029F91AC
:100620008F910F900FBE0F901F9018951F920F92F1
:100630000FB60F9211248F939F9389B18093A602D6
:1006400086B18093A7028091A60288708093AE0243
:100650008091A70282708093B4028091A70281707A
:100660008093B1028091A60284708093AB02909136
:10067000AE0280910E01981739F49091B4028091E6
:100680000F01981709F463C090910C01913081F427
:100690008091AE02882329F082E080930C01909330
:1006A000A3028091B402882309F446C084E029C0E3
:1006B00080910C01823091F48091AE02882329F45C
:1006C00081E080930C011092A3028091B4028823F0
:1006D00099F183E080930C0181E02CC080910C01A2
:1006E0008330A1F48091AE02882331F484E08093BA
:1006F0000C0181E08093A3028091B4028823E1F48D
:1007000082E080930C011092A30216C080910C012C
:10071000843091F48091AE02882329F083E08093A5
:100720000C011092A3028091B402882329F481E085
:1007300080930C018093A3028091AE0280930E01FE
:100740008091B40280930F0181E08093A402909184
:10075000B10280911001981739F49091AB02809109
:100760001101981709F463C090910A01913081F446
:100770008091B102882329F082E080930A0190934E
:10078000A2028091AB02882309F446C084E029C00C
:1007900080910A01823091F48091B102882329F47A
:1007A00081E080930A011092A2028091AB0288231B
:1007B00099F183E080930A0181E02CC080910A01C5
:1007C0008330A1F48091B102882331F484E08093D6
:1007D0000A0181E08093A2028091AB028823E1F4B8
:1007E00082E080930A011092A20216C080910A0151
:1007F000843091F48091B102882329F083E08093C2
:100800000A011092A2028091AB02882329F481E0B0
:1008100080930A018093A2028091B102809310011B
:100820008091AB028093110181E08093A5029F919A
:100830008F910F900FBE0F901F901895CF92DF925F
:10084000EF92FF920F931F930E94BA000E94ED0057
:100850008BB18C608BB988B1836088B98091680056
:100860008460809368008091680082608093680053
:1008700080916D008C6080936D0080916C0083602E
:1008800080936C0086B1827080930E0189B188706C
:1008900080930F0189B184708093100186B18170BB
:1008A00080931101789488EA92E069EA72E00E94EC
:1008B00089058091A402882341F01092A4028091BE
:1008C000A3026DE071E00E947D018091A502882362
:1008D00041F01092A5028091A2026BE071E00E94AB
:1008E000300180E262E171E041E050E020E030E080
:1008F00000E010E0B9EBEB2EB2E0FB2EA2E0CA2E36
:10090000D12C0E94BC0480E263E171E041E050E040
:1009100020E030E0FFEAEF2EF2E0FF2E0E94BC0460
:1009200080E264E171E041E050E020E030E0ECEA98
:10093000EE2EE2E0FE2E0E94BC0480E265E171E052
:1009400041E050E020E030E092EBE92E92E0F92E19
:100950000E94BC0489EB92E06FEA72E04CEA52E03C
:1009600097010E940A066093B5027093B6028093C5
:10097000B7029093B8029DCFBF92CF92DF92EF92D1
:10098000FF920F931F93CF93DF93B82EFB01D901F2
:10099000E7014115510531F40115110519F490E0F5
:1009A00080E054C084EA8093BC008091BC0087FF43
:1009B000FCCF9091B900987F983009F09FC08B2DA3
:1009C0008E7F8093BB0084E88093BC008091BC0044
:1009D00087FFFCCF9091B900987F9831B1F09032A9
:1009E00009F08CC088C080818093BB002093BC003C
:1009F0008091BC0087FFFCCF9091B900987F415057
:100A000050409832C9F4319601C024E8411551058F
:100A100051F716C08C918093BB002093BC0080914D
:100A2000BC0087FFFCCF9091B900987F0150104027
:100A3000983211F4119605C0903309F05FC05BC085
:100A400024E80115110531F791E081E0C114D104CA
:100A500009F44EC0882311F428E001C020E184EAA3
:100A60008093BC008091BC0087FFFCCF9091B900BF
:100A7000987F921709F042C081E0B82AB092BB007B
:100A800084E88093BC008091BC0087FFFCCF9091EC
:100A9000B900987F903419F0983481F52CC00894EF
:100AA000C108D10824EC11C02093BC008091BC0087
:100AB00087FFFCCF9091B900987F0894C108D108B6
:100AC0009035E1F48091BB008993C114D10461F7A2
:100AD00084E88093BC008091BC0087FFFCCF90919C
:100AE000B900987F983551F48091BB00888302C08B
:100AF000992321F090E084E98093BC00892FDF9155
:100B0000CF911F910F91FF90EF90DF90CF90BF900A
:100B10000895CF92DF92EF92FF920F931F93AC0153
:100B20009B0180E2BA0141E050E002E010E0EE24D7
:100B3000FF24CC24DD240E94BC041092B9008DE176
:100B40008093B8001F910F91FF90EF90DF90CF90AE
:100B500008951092B9008093B8000895AF92BF92A3
:100B6000CF92DF92EF92FF920F931F936B017C0164
:100B700083E06AE00E948900C701B6010E94980ADA
:100B80002DB73EB7285030400FB6F8943EBF0FBE89
:100B90002DBF0DB71EB70F5F1F4F8DEBA82E82E044
:100BA000B82EEDB7FEB7B282A18227E131E0F8019D
:100BB0003383228375836483882777FD8095982FFC
:100BC0000E943A0A9B01AC01C701B6010E94E208EB
:100BD00020E030E543EC57E40E9440090E94980A67
:100BE000F801778366830E94900D2DB73EB7285F8A
:100BF0003F4F0FB6F8943EBF0FBE2DBFC5010E94F8
:100C0000AD001F910F91FF90EF90DF90CF90BF90BC
:100C1000AF9008952F923F924F925F926F927F9282
:100C20008F929F92AF92BF92CF92DF92EF92FF92FC
:100C30000F931F93CF93DF937C01EB01FA0189019E
:100C4000718160E0208130E0622B732B80E090E0C6
:100C50000E94EC0A1B012C01F801718160E02081E7
:100C600030E0622B732B80E090E00E94EC0A3B01A5
:100C70004C01F701718160E0208130E0622B732B21
:100C800080E090E00E94EC0A7B018C01C201B1017E
:100C90002BE734E14EE050EC0E9440099B01AC018F
:100CA000C801B7010E9413097B018C01C401B30183
:100CB00021E73DE34AEA5FEB0E9440099B01AC015A
:100CC000C801B7010E9413092CE534ED4EE05AE348
:100CD0000E9440095B016C01798160E0288130E06D
:100CE000622B732B80E090E00E94EC0A7B018C0168
:100CF000C201B1012DEC3CEC4CE350EC0E944009E8
:100D00009B01AC01C801B7010E9413097B018C0152
:100D1000C401B30120E030E040EE5FEB0E944009E7
:100D20009B01AC01C801B7010E94130925E033EB18
:100D300040E25AE30E9440097B018C01C601B501E3
:100D40000E94AE05C601B501A80197010E941309D2
:100D500020E030E040E05FE30E944009DF91CF9166
:100D60001F910F91FF90EF90DF90CF90BF90AF90C9
:100D70009F908F907F906F905F904F903F902F90BB
:100D80000895AF92BF92CF92DF92EF92FF920F93AE
:100D90001F936B017C0183E06FE00E948900C70113
:100DA000B6010E94980A2DB73EB7285030400FB6C2
:100DB000F8943EBF0FBE2DBF0DB71EB70F5F1F4F7C
:100DC0009DEBA92E92E0B92EEDB7FEB7B282A182BB
:100DD0002FE131E0F8013383228375836483882710
:100DE00077FD8095982F0E943A0A9B01AC01C701BC
:100DF000B6010E94E20820E030E040E251E40E94A7
:100E000040090E94980AF801778366830E94900D3A
:100E10002DB73EB7285F3F4F0FB6F8943EBF0FBEC9
:100E20002DBFC5010E94AD001F910F91FF90EF9063
:100E3000DF90CF90BF90AF900895AF92BF92CF92C6
:100E4000DF92EF92FF920F931F939C015B0180E270
:100E5000B90141E050E020E030E000E010E0750131
:100E6000E2E0CE2ED12C0E94BC0483E06FE00E9411
:100E700089008DB79EB708970FB6F8949EBF0FBE36
:100E80008DBFEDB7FEB731960DEB12E0ADB7BEB733
:100E900012961C930E93119734E0C32ED12CD3825B
:100EA000C28225E2E22E21E0F22EF582E482D50113
:100EB0008C91868317820E945F0D8DB79EB708962E
:100EC0000FB6F8949EBF0FBE8DBFC8010E94AD0043
:100ED000ADB7BEB718970FB6F894BEBF0FBEADBF83
:100EE000EDB7FEB7319612961C930E931197D382ED
:100EF000C282F582E482D50111968C918683178295
:100F00000E945F0D8DB79EB708960FB6F8949EBFEE
:100F10000FBE8DBFC8010E94AD001F910F91FF90C1
:100F2000EF90DF90CF90BF90AF900895A0E0B0E039
:100F3000ECE9F7E00C94280DDC012B01FA019C91FF
:100F4000923008F439C1EB018881823008F433C152
:100F5000943069F4843009F02FC111969C91119757
:100F60008981981709F428C1A1E7B1E025C184302F
:100F700009F421C18230A9F4923009F01DC19A010F
:100F8000AD0188E0EA010990AE01E90109929E01F4
:100F90008150C1F7E201898111969C918923818357
:100FA00008C1923009F407C112962D903C90139716
:100FB000EB018A819B811496AD90BD90CD90DC9021
:100FC0001797EC80FD800E811F819101281B390B42
:100FD000B90137FF04C066277727621B730B6032A5
:100FE00071050CF061C0121613066CF5370148014B
:100FF000062E04C096948794779467940A94D2F747
:1010000021E030E040E050E004C0220F331F441FD5
:10101000551F6A95D2F721503040404050402E2154
:101020003F2140235123211531054105510521F070
:1010300021E030E040E050E079018A01E628F7281D
:10104000082919293CC0232BD1F1260E371E350162
:101050004601062E04C096948794779467940A9468
:10106000D2F721E030E040E050E004C0220F331F0F
:10107000441F551F6A95D2F72150304040405040E0
:101080002A213B214C215D212115310541055105C6
:1010900021F021E030E040E050E059016A01A6284B
:1010A000B728C828D9280BC0821593052CF01C013D
:1010B000AA24BB24650103C0EE24FF2487011196F6
:1010C0009C91D20111968C91981709F445C09923EF
:1010D00039F0A80197012A193B094C095D0906C09E
:1010E000A60195012E193F09400B510B57FD08C071
:1010F00011823382228224833583468357831DC025
:1011000081E081833382228288279927DC01821B38
:10111000930BA40BB50B84839583A683B7830DC073
:10112000220F331F441F551F248335834683578363
:1011300082819381019793838283248135814681C3
:101140005781DA01C9010197A109B1098F5F9F4F4A
:10115000AF4FBF4328F30BC0918333822282EA0C46
:10116000FB1C0C1D1D1DE482F5820683178383E0A2
:101170008083248135814681578157FF1AC0C90178
:10118000AA2797FDA095BA2F81709070A070B070BB
:101190005695479537952795822B932BA42BB52BE6
:1011A00084839583A683B7838281938101969383F9
:1011B0008283DF0101C0D201CD01CDB7DEB7E2E10C
:1011C0000C94440DA0E2B0E0E8EEF8E00C94340D8D
:1011D00069837A838B839C832D833E834F835887D7
:1011E000E9E0EE2EF12CEC0EFD1ECE010196B701CA
:1011F0000E94890C8E010F5E1F4FCE010596B8012B
:101200000E94890C8A8991E089278A8BC701B801DD
:10121000AE01475E5F4F0E9496070E94B40BA096F6
:10122000E6E00C94500DA0E2B0E0E9E1F9E00C94A6
:10123000340D69837A838B839C832D833E834F8314
:101240005887F9E0EF2EF12CEC0EFD1ECE01019631
:10125000B7010E94890C8E010F5E1F4FCE010596CB
:10126000B8010E94890CC701B801AE01475E5F4F0B
:101270000E9496070E94B40BA096E6E00C94500DD5
:10128000A0E2B0E0E6E4F9E00C94280D69837A83EB
:101290008B839C832D833E834F835887CE01019699
:1012A000BE01675F7F4F0E94890CCE010596BE018B
:1012B0006F5E7F4F0E94890C9985923088F08989F2
:1012C0008230C8F0943019F4823051F404C0843074
:1012D00029F4923081F481E791E0C6C0923049F45C
:1012E00020E09A858A89981321E02A87CE01099601
:1012F000BBC0823049F420E09A858A89981321E0A6
:101300002A8BCE014196B0C02D843E844F845888EC
:101310006D887E888F88988CEE24FF248701AA240C
:10132000BB24650140E050E060E070E0E0E0F0E008
:10133000C10181709070892BE9F0E60CF71C081D43
:10134000191D9A01AB012A0D3B1D4C1D5D1D80E04E
:1013500090E0A0E0B0E0E614F7040805190520F4D9
:1013600081E090E0A0E0B0E0BA01A901480F591F68
:101370006A1F7B1FAA0CBB1CCC1CDD1C97FE08C07F
:1013800081E090E0A0E0B0E0A82AB92ACA2ADB2ACE
:101390003196E032F10549F0660C771C881C991CE7
:1013A0005694479437942794C3CFFA85EA892B89BA
:1013B0003C898B859C85280F391F2E5F3F4F17C0B6
:1013C000CA0181709070892B61F016950795F7948A
:1013D000E79480E090E0A0E0B0E8E82AF92A0A2B40
:1013E0001B2B76956795579547952F5F3F4F77FD58
:1013F000E7CF0CC0440F551F661F771F17FD4160D4
:10140000EE0CFF1C001F111F21503040403090E0B7
:10141000590790E0690790E4790760F32B8F3C8FC0
:10142000DB01CA018F779070A070B0708034910595
:10143000A105B10561F447FD0AC0E114F1040105FD
:10144000110529F0405C5F4F6F4F7F4F40781A8E37
:10145000FE1711F081E08A8F4D8F5E8F6F8F78A31A
:1014600083E0898FCE0149960E94B40BA096E2E1F9
:101470000C94440DA8E0B0E0E0E4FAE00C94310DE7
:101480009B01AC0183E08983DA01C9018827B7FD9C
:1014900083959927AA27BB27B82E21153105410529
:1014A000510519F482E089833AC08823A9F02030DD
:1014B00080E0380780E0480780E8580729F460E0BA
:1014C00070E080E09FEC30C0EE24FF248701E21A38
:1014D000F30A040B150B02C079018A018EE1C82EB4
:1014E000D12CDC82CB82ED82FE820F831887C8016B
:1014F000B7010E94650B01971816190684F4082E8F
:1015000004C0EE0CFF1C001F111F0A94D2F7ED82DD
:10151000FE820F831887C81AD90ADC82CB82BA826E
:10152000CE0101960E94B40B2896E9E00C944D0D73
:10153000ACE0B0E0EEE9FAE00C94380D69837A8310
:101540008B839C83CE010196BE016B5F7F4F0E940F
:10155000890C8D81823061F1823050F1843021F428
:101560008E81882351F12EC02F81388537FD20C010
:101570006E812F3131051CF06623F9F023C08EE116
:1015800090E0821B930B29853A854B855C8504C0CE
:1015900056954795379527958A95D2F76623B1F0EA
:1015A00050954095309521953F4F4F4F5F4F0EC05E
:1015B00020E030E040E050E009C02FEF3FEF4FEF78
:1015C0005FE704C020E030E040E050E8B901CA0124
:1015D0002C96E2E00C94540DA8E0B0E0E2EFFAE0C3
:1015E0000C94300D7B018C0161157105810591050D
:1015F00019F482E0898360C083E089838EE1C82E7C
:10160000D12CDC82CB82ED82FE820F831887C80149
:10161000B7010E94650BFC013197F7FF3BC0222701
:1016200033272E1B3F0B57016801022E04C0D694AE
:10163000C794B794A7940A94D2F740E050E060E0D2
:1016400070E081E090E0A0E0B0E004C0880F991F56
:10165000AA1FBB1F2A95D2F70197A109B1098E21B4
:101660009F21A023B1230097A105B10521F041E0FE
:1016700050E060E070E04A295B296C297D294D83A8
:101680005E836F8378878EE190E08E1B9F0B9C8337
:101690008B8312C0309781F00E2E04C0EE0CFF1C1D
:1016A000001F111F0A94D2F7ED82FE820F83188764
:1016B000CE1ADF0ADC82CB821A82CE0101960E940A
:1016C000B40B2896EAE00C944C0DEF92FF920F9326
:1016D0001F937B018C0180E0E81680E0F80681E032
:1016E000080780E0180788F48FEFE816F104010579
:1016F000110531F028F088E090E0A0E0B0E017C0DC
:1017000080E090E0A0E0B0E012C080E0E81680E069
:10171000F80680E0080781E0180728F088E190E0EB
:10172000A0E0B0E004C080E190E0A0E0B0E020E202
:1017300030E040E050E0281B390B4A0B5B0B04C043
:1017400016950795F794E7948A95D2F7F701E7582D
:10175000FE4F8081281B310941095109C9011F91A0
:101760000F91FF90EF900895DF92EF92FF920F9309
:101770001F93FC01E480F58006811781D180808170
:10178000823048F480E090E0A0E1B0E0E82AF92A55
:101790000A2B1B2BA5C0843009F49FC0823021F492
:1017A000EE24FF24870105C0E114F10401051105B1
:1017B00019F4E0E0F0E096C0628173819FEF623837
:1017C00079070CF05BC022E83FEF261B370B2A316C
:1017D00031052CF020E030E040E050E02AC0B801B4
:1017E000A701022E04C076956795579547950A94F0
:1017F000D2F781E090E0A0E0B0E004C0880F991F2C
:10180000AA1FBB1F2A95D2F70197A109B1098E2102
:101810009F21A023B1230097A105B10521F081E00C
:1018200090E0A0E0B0E09A01AB01282B392B4A2BC5
:101830005B2BDA01C9018F779070A070B070803493
:101840009105A105B10539F427FF09C0205C3F4F80
:101850004F4F5F4F04C0215C3F4F4F4F5F4FE0E061
:10186000F0E02030A0E03A07A0E04A07A0E45A07E1
:1018700010F0E1E0F0E079018A0127C060387105DD
:1018800064F5FB01E158FF4FD801C7018F779070D5
:10189000A070B07080349105A105B10539F4E7FE60
:1018A0000DC080E490E0A0E0B0E004C08FE390E0E1
:1018B000A0E0B0E0E80EF91E0A1F1B1F17FF05C0CD
:1018C00016950795F794E794319687E01695079556
:1018D000F794E7948A95D1F705C0EE24FF24870199
:1018E000EFEFF0E06E2F679566276795902F9F7753
:1018F000D794DD24D7948E2F8695492F462B582FC9
:101900005D29B701CA011F910F91FF90EF90DF9001
:101910000895FC01DB01408151812281622F6F77A4
:1019200070E0221F2227221F9381892F880F822B8C
:10193000282F30E0991F9927991F11969C93119792
:1019400021153105A9F5411551056105710511F400
:1019500082E037C082E89FEF13969C938E93129794
:101960009A01AB0167E0220F331F441F551F6A9590
:10197000D1F783E08C930DC0220F331F441F551FF6
:1019800012968D919C911397019713969C938E9329
:101990001297203080E0380780E0480780E458073D
:1019A00058F314962D933D934D935C931797089598
:1019B0002F3F310579F4411551056105710519F481
:1019C00084E08C93089564FF03C081E08C9312C07F
:1019D0001C9210C02F57304013963C932E931297B1
:1019E00083E08C9387E0440F551F661F771F8A950D
:1019F000D1F7706414964D935D936D937C93179714
:101A0000089597FB092E07260AD077FD04D00CD045
:101A100006D000201AF4709561957F4F0895F6F76F
:101A2000909581959F4F0895AA1BBB1B51E107C05C
:101A3000AA1FBB1FA617B70710F0A61BB70B881F5E
:101A4000991F5A95A9F780959095BC01CD010895ED
:101A50002F923F924F925F926F927F928F929F92BE
:101A6000AF92BF92CF92DF92EF92FF920F931F93AC
:101A7000CF93DF93CDB7DEB7CA1BDB0B0FB6F8945D
:101A8000DEBF0FBECDBF09942A88398848885F849D
:101A90006E847D848C849B84AA84B984C884DF800E
:101AA000EE80FD800C811B81AA81B981CE0FD11DF2
:101AB0000FB6F894DEBF0FBECDBFED010895AEE0C6
:101AC000B0E0E5E6FDE00C94360D0D891E898F89A6
:101AD000988D97FF02C080E090E801979E838D83E8
:101AE0001A83098386E08C839E01255E3F4FCE01D9
:101AF0000196698D7A8DA9010E94B40D4D815E8198
:101B000057FD0AC02F813885421753070CF49A01FC
:101B1000020F131FF80110822E96E4E00C94520D70
:101B2000AEE0B0E0E6E9FDE00C94360D0D891E89CB
:101B300086E08C831A8309838FEF9FE79E838D83D2
:101B40009E01275E3F4FCE0101966F89788DA901D6
:101B50000E94B40D2F813885020F131FF8011082E7
:101B60002E96E4E00C94520DABE0B0E0EAEBFDE021
:101B70000C94280D3C012B015A01FC01178216829E
:101B8000838181FD03C06FEF7FEFC6C19AE0892E8C
:101B90001E010894211C311CF3012381F20123FD55
:101BA000859123FF81912F01882309F4B2C18532E9
:101BB00039F423FD859123FF81912F01853229F48A
:101BC00090E0B3010E94A70FE7CF982FFF24EE24E7
:101BD0009924FFE1FF15D0F09B3269F09C3228F484
:101BE000903259F0933291F40EC09D3249F0903307
:101BF00069F441E024C052E0F52A84E0F82A28C0C4
:101C000098E0F92A25C0E0E1FE2A22C0F7FC29C0AD
:101C1000892F80538A3070F4F6FE05C0989C902C72
:101C20001124980E15C0E89CE02C1124E80EF0E277
:101C3000FF2A0EC09E3229F4F6FC6BC140E4F42A60
:101C400007C09C3619F450E8F52A02C0983649F4CA
:101C5000F20123FD959123FF91912F01992309F022
:101C6000B8CF892F8554833018F08052833038F4F0
:101C700044E050E0A40EB51E5FE359830FC09336D5
:101C800031F0933779F0933509F056C020C0F50153
:101C90008081898342E050E0A40EB51E610101E01D
:101CA00010E012C0F501C080D180F6FC03C06FEFD8
:101CB0007FEF02C0692D70E042E050E0A40EB51E37
:101CC000C6010E949C0F8C015FE7F52214C0F5014C
:101CD000C080D180F6FC03C06FEF7FEF02C0692D9A
:101CE00070E042E050E0A40EB51EC6010E94910FC4
:101CF0008C0150E8F52AF3FE07C01AC080E290E09C
:101D0000B3010E94A70FEA948E2D90E008171907DF
:101D1000A8F30EC0F601F7FC8591F7FE81916F01E3
:101D200090E0B3010E94A70FE110EA940150104027
:101D30000115110579F7EAC0943611F0993669F565
:101D4000F7FE08C0F501208131814281538184E092
:101D500090E00AC0F501808191819C01442737FD04
:101D60004095542F82E090E0A80EB91E9FE6F9221C
:101D700057FF09C050954095309521953F4F4F4FE3
:101D80005F4FE0E8FE2ACA01B901A1012AE030E074
:101D90000E94D30FD82ED21840C0953729F41F2D9A
:101DA0001F7E2AE030E01DC01F2D197F9F3661F095
:101DB000903720F4983509F0ACC00FC0903739F057
:101DC000983709F0A6C004C028E030E00AC01061CE
:101DD00014FD146020E130E004C014FD166020E121
:101DE00032E017FF08C0F501608171818281938123
:101DF00044E050E008C0F50180819181BC0180E0A1
:101E000090E042E050E0A40EB51EA1010E94D30F65
:101E1000D82ED2188FE7F82EF122F6FE0BC05EEF17
:101E2000F522D91438F4F4FE07C0F2FC05C08FEE99
:101E3000F82202C01D2D01C0192DF4FE0DC0FE01B7
:101E4000ED0DF11D8081803319F499EEF92208C05F
:101E50001F5FF2FE05C003C08F2D867809F01F5F5B
:101E60000F2DF3FC14C0F0FE0FC01E1510F09D2CBA
:101E70000BC09D2C9E0C911A1E2D06C080E290E096
:101E8000B3010E94A70F1F5F1E15C0F304C01E15EB
:101E900010F4E11A01C0EE2404FF0FC080E390E0CB
:101EA000B3010E94A70F02FF1DC001FD03C088E718
:101EB00090E00EC088E590E00BC0802F867891F00E
:101EC00001FF02C08BE201C080E2F7FC8DE290E0EE
:101ED000B3010E94A70F06C080E390E0B3010E9407
:101EE000A70F9A94D914C0F3DA94F101ED0DF11D06
:101EF000808190E0B3010E94A70FDD20A9F706C002
:101F000080E290E0B3010E94A70FEA94EE20C1F7AF
:101F100043CEF30166817781CB012B96E2E10C94ED
:101F2000440DFC010590615070400110D8F7809578
:101F300090958E0F9F1F0895FC0161507040019095
:101F40000110D8F7809590958E0F9F1F08950F93DD
:101F50001F93CF93DF938C01EB018B8181FF1BC01B
:101F600082FF0DC02E813F818C819D81281739070A
:101F700064F4E881F9810193F983E88306C0E88578
:101F8000F985802F0995892B31F48E819F810196E7
:101F90009F838E8302C00FEF1FEFC801DF91CF91A7
:101FA0001F910F910895FA01AA27283051F120318D
:101FB00081F1E8946F936E7F6E5F7F4F8F4F9F4FDD
:101FC000AF4FB1E03ED0B4E03CD0670F781F891F1F
:101FD0009A1FA11D680F791F8A1F911DA11D6A0FED
:101FE000711D811D911DA11D20D009F468943F91A0
:101FF0002AE0269F11243019305D3193DEF6CF019F
:102000000895462F4770405D4193B3E00FD0C9F764
:10201000F6CF462F4F70405D4A3318F0495D31FDD1
:102020004052419302D0A9F7EACFB4E0A695979524
:10203000879577956795BA95C9F7009761057105FA
:1020400008959B01AC010A2E069457954795379544
:102050002795BA95C9F7620F731F841F951FA01D9E
:062060000895F894FFCF83
:102066008B02900294029D02980201320132030310
:10207600030307090A0B0C25642E3030256400255E
:10208600642E256400253364000000803F00008034
:102096003F0000803F0000803F7B140E40713DAA48
:1020A6003FCDCC3C400000E03FF025113BF99E912E
:1020B6003A5CD40E3A4D069A39500A1E39DD4E2343
:1020C6003B0AD7A33A05B3203A864BAD3927D03120
:1020D60039000000000000000000010202030303B3
:1020E60003040404040404040405050505050505A4
:1020F6000505050505050505050606060606060683
:102106000606060606060606060606060606060669
:102116000606060606060606060707070707070752
:102126000707070707070707070707070707070739
:102136000707070707070707070707070707070729
:102146000707070707070707070707070707070719
:102156000707070707070707070808080808080802
:1021660008080808080808080808080808080808E9
:1021760008080808080808080808080808080808D9
:1021860008080808080808080808080808080808C9
:1021960008080808080808080808080808080808B9
:1021A60008080808080808080808080808080808A9
:1021B6000808080808080808080808080808080899
:1021C6000808080808080808080808080808080889
:1021D600080808080808080808004014542533644D
:1021E60000202020202020202020007665727920E3
:1021F6006472790061766700766572792064616D34
:02220600700066
:00000001FF
