:100000000C9449000C9466000C9466000C946600F5
:100010000C9466000C940E020C9466000C9466001E
:100020000C9466000C9466000C9466000C946600B8
:100030000C9466000C9466000C9466000C946600A8
:100040000C9466000C9466000C9466000C94660098
:100050000C9466000C9466000C9466000C94660088
:100060000C9466000C94660055563A200048756D55
:1000700069646974793A200054656D7065726174C1
:100080007572653A20004D6F6973747572653A2018
:10009000000011241FBECFEFD8E0DEBFCDBF11E0BE
:1000A000A0E0B1E0ECEAFFE002C005900D92A034C0
:1000B000B107D9F711E0A0E4B1E001C01D92A2356B
:1000C000B107E1F70E9413030C94D4070C940000CD
:1000D0009BB19F709BB99BB1807F892B8BB985B1F8
:1000E000837F85B92A9A2A9A2A980895CF93C82F90
:1000F0000E9468008C2F8295807FCF910C946800BD
:100100002C980E94760086E69EE00197F1F70000A9
:100110000895843048F4E82FF0E0EA5EFE4F8081D5
:10012000860F80680C94800080E3FACF2C9A0E949E
:10013000760086E69EE00197F1F700000895CF93E0
:10014000DF93EC01FE0184912196811103C0DF91C0
:10015000CF9108950E949600F5CFCF93DF93EC01E5
:100160008991811103C0DF91CF9108950E9496007B
:10017000CE01F5CF8AB1806F8AB984B18C6184B920
:100180002C988FEF9BE60197F1F700C0000080E309
:100190000E9468008FEF93E20197F1F700C0000022
:1001A00080E30E9468008DED90E00197F1F780E315
:1001B0000E94680086E69EE00197F1F7000080E269
:1001C0000E94680086E69EE00197F1F7000088E251
:1001D0000E9480008FE00C9480000E94BA0081E0B1
:1001E0000E9480008CE00E94800060E080E00E941D
:1001F000890086E890E00E949F0060E081E00E9414
:10020000890088E790E00E949F0060E082E00E9401
:1002100089008DE690E00E949F0060E083E00E94EC
:10022000890088E690E00C949F0086E69EE00197A6
:10023000F1F700000895E0E0F8E43197F1F7089550
:100240003A9A40E058E428EB30E0CA010197F1F710
:1002500080E197E2F9013197F1F70197D9F7F5CFEE
:100260000F931F93CF93DF930F92CDB7DEB78983A0
:100270008B018981811132C08FEF97E40197F1F7EB
:1002800000C00000FB0180818B3028F58AE080836C
:100290006FE081E00E948900F80180811F928F93B6
:1002A0008AE191E09F938F931F9284E08F9388E47B
:1002B00091E09F938F930E94EF040FB6F894DEBFF6
:1002C0000FBECDBF88E491E00F90DF91CF911F91D9
:1002D0000F910C94AD0080818A50D9CF8FEF97E4B5
:1002E0000197F1F700C00000FB018081883710F012
:1002F00088E7CDCF8081865FCACF0F931F93CF93BE
:10030000DF930F92CDB7DEB789838B01898181118D
:1003100048C08FEF97E40197F1F700C00000FB01A0
:10032000808181113AC010826AE080E00E948900D9
:100330008EE191E00E94AD006AE080E00E948900B9
:10034000F80180818531E0F58091000190910101F3
:100350000E94AD0061E180E00E948900F801808187
:100360001F928F938AE191E09F938F931F9284E075
:100370008F9388E491E09F938F930E94EF040FB6D0
:10038000F894DEBF0FBECDBF88E491E00F90DF91FF
:10039000CF911F910F910C94AD0080818A50808382
:1003A000C3CF8FEF97E40197F1F700C00000FB0186
:1003B0008081883710F088E7F2CF8081865FEFCFA9
:1003C0008081893228F48091020190910301C0CF8D
:1003D00080818D3328F48091040190910501B8CF7C
:1003E0008081813528F48091060190910701B0CF7A
:1003F00080818536C0F38091080190910901A8CFD2
:1004000005966AE070E00E94C8046150710908F422
:10041000089588E18A95F1F700C0F7CF1F920F92F7
:100420000FB60F9211248F939F9389B1809344014B
:1004300080914401887080934F01809144018170C4
:10044000809351018091440182708093500180918A
:100450004401847080934C0190914F0180910E0172
:10046000981739F49091510180910F01981709F470
:1004700063C090910C01913081F480914F018823E9
:1004800029F082E080930C01909341018091510109
:10049000882309F446C084E029C080910C01823091
:1004A00091F480914F01882329F481E080930C011D
:1004B0001092410180915101882399F183E080934A
:1004C0000C0181E02CC080910C018330A1F480915B
:1004D0004F01882331F484E080930C0181E0809304
:1004E0004101809151018823E1F482E080930C0165
:1004F0001092410116C080910C01843091F48091DA
:100500004F01882329F083E080930C011092410170
:1005100080915101882329F481E080930C0180931C
:10052000410180914F0180930E0180915101809390
:100530000F0181E080934201909150018091100160
:10054000981739F490914C0180911101981709F492
:1005500063C090910A01913081F480915001882309
:1005600029F082E080930A019093400180914C0130
:10057000882309F446C084E029C080910A018230B2
:1005800091F480915001882329F481E080930A013D
:100590001092400180914C01882399F183E080936F
:1005A0000A0181E02CC080910A018330A1F480917E
:1005B0005001882331F484E080930A0181E0809324
:1005C000400180914C018823E1F482E080930A018C
:1005D0001092400116C080910A01843091F48091FC
:1005E0005001882329F083E080930A011092400192
:1005F00080914C01882329F481E080930A01809343
:100600004001809150018093100180914C018093B2
:10061000110181E0809343019F918F910F900FBE54
:100620000F901F9018950E94BA000E94ED008BB1A8
:100630008F608BB98091680084608093680080919E
:100640006D008F6080936D0089B1817080930E0181
:1006500089B1887080930F0189B1847080931001F3
:1006600089B1827080931101789485E491E066E409
:1006700071E00E942A0487E0809345018091420145
:10068000882341F010924201809141016DE071E0B8
:100690000E947D0180914301882341F01092430123
:1006A000809140016BE071E00E94300185E491E0AF
:1006B0006DE471E00E944F04E1CFBF92CF92DF92D0
:1006C000EF92FF920F931F93CF93DF93B82EFB010E
:1006D000D901E7014115510531F40115110519F44E
:1006E00090E080E054C084EA8093BC008091BC001C
:1006F00087FFFCCF9091B900987F983009F09FC098
:100700008B2D8E7F8093BB0084E88093BC0080910A
:10071000BC0087FFFCCF9091B900987F9831B1F071
:10072000903209F08CC088C080818093BB002093F8
:10073000BC008091BC0087FFFCCF9091B900987FEE
:10074000415050409832C9F4319601C024E8411517
:10075000510551F716C08C918093BB002093BC00CB
:100760008091BC0087FFFCCF9091B900987F015029
:100770001040983211F4119605C0903309F05FC013
:100780005BC024E80115110531F791E081E0C11447
:10079000D10409F44EC0882311F428E001C020E1FF
:1007A00084EA8093BC008091BC0087FFFCCF9091CD
:1007B000B900987F921709F042C081E0B82AB09240
:1007C000BB0084E88093BC008091BC0087FFFCCF15
:1007D0009091B900987F903419F0983481F52CC02D
:1007E0000894C108D10824EC11C02093BC0080916A
:1007F000BC0087FFFCCF9091B900987F0894C10896
:10080000D1089035E1F48091BB008993C114D104E3
:1008100061F784E88093BC008091BC0087FFFCCF27
:100820009091B900987F983551F48091BB008883EE
:1008300002C0992321F090E084E98093BC00892FC5
:10084000DF91CF911F910F91FF90EF90DF90CF90AC
:10085000BF900895CF92DF92EF92FF920F931F9374
:10086000AC019B0180E2BA0141E050E002E010E0FF
:10087000EE24FF24CC24DD240E945D031092B900F5
:100880008DE18093B8001F910F91FF90EF90DF9062
:10089000CF9008951092B9008093B8000895AF9258
:1008A000BF92CF92DF92EF92FF920F931F939C0122
:1008B0005B0180E2B90141E050E020E030E000E07F
:1008C00010E07501E2E0CE2ED12C0E945D0383E0A2
:1008D0006FE00E9489008DB79EB708970FB6F89415
:1008E0009EBF0FBE8DBFEDB7FEB7319608E411E095
:1008F000ADB7BEB712961C930E93119794E0C92E14
:10090000D12CD382C28282E1E82E81E0F82EF582DA
:10091000E482D5018C91868317820E94EF048DB703
:100920009EB708960FB6F8949EBF0FBE8DBFC80144
:100930000E94AD00ADB7BEB718970FB6F894BEBF12
:100940000FBEADBFEDB7FEB7319612961C930E9356
:100950001197D382C282F582E482D50111968C91DF
:10096000868317820E94EF048DB79EB708960FB654
:10097000F8949EBF0FBE8DBFC8010E94AD001F91AD
:100980000F91FF90EF90DF90CF90BF90AF900895C0
:1009900097FB092E07260AD077FD04D00CD006D08D
:1009A00000201AF4709561957F4F0895F6F79095A1
:1009B00081959F4F0895AA1BBB1B51E107C0AA1F39
:1009C000BB1FA617B70710F0A61BB70B881F991FF0
:1009D0005A95A9F780959095BC01CD010895AEE098
:1009E000B0E0E5EFF4E00C94AB070D891E898F8928
:1009F000988D97FF02C080E090E801979E838D83D9
:100A00001A83098386E08C839E01255E3F4FCE01C9
:100A10000196698D7A8DA9010E9420054D815E8124
:100A200057FD0AC02F813885421753070CF49A01ED
:100A3000020F131FF80110822E96E4E00C94C707F2
:100A4000ABE0B0E0E6E2F5E00C949D073C012B0141
:100A50005A01FC0117821682838181FD03C06FEF6A
:100A60007FEFC6C19AE0892E1E010894211C311C1B
:100A7000F3012381F20123FD859123FF81912F0151
:100A8000882309F4B2C1853239F423FD859123FF0F
:100A900081912F01853229F490E0B3010E94130760
:100AA000E7CF982FFF24EE249924FFE1FF15D0F023
:100AB0009B3269F09C3228F4903259F0933291F4D1
:100AC0000EC09D3249F0903369F441E024C052E0F9
:100AD000F52A84E0F82A28C098E0F92A25C0E0E148
:100AE000FE2A22C0F7FC29C0892F80538A3070F477
:100AF000F6FE05C0989C902C1124980E15C0E89C19
:100B0000E02C1124E80EF0E2FF2A0EC09E3229F4F8
:100B1000F6FC6BC140E4F42A07C09C3619F450E897
:100B2000F52A02C0983649F4F20123FD959123FF7E
:100B300091912F01992309F0B8CF892F85548330E3
:100B400018F08052833038F444E050E0A40EB51E13
:100B50005FE359830FC0933631F0933779F09335C3
:100B600009F056C020C0F5018081898342E050E041
:100B7000A40EB51E610101E010E012C0F501C080B5
:100B8000D180F6FC03C06FEF7FEF02C0692D70E0EB
:100B900042E050E0A40EB51EC6010E9408078C0179
:100BA0005FE7F52214C0F501C080D180F6FC03C0D8
:100BB0006FEF7FEF02C0692D70E042E050E0A40EBD
:100BC000B51EC6010E94FD068C0150E8F52AF3FE11
:100BD00007C01AC080E290E0B3010E941307EA94B4
:100BE0008E2D90E008171907A8F30EC0F601F7FC48
:100BF0008591F7FE81916F0190E0B3010E94130788
:100C0000E110EA94015010400115110579F7EAC08E
:100C1000943611F0993669F5F7FE08C0F501208188
:100C200031814281538184E090E00AC0F5018081E6
:100C300091819C01442737FD4095542F82E090E03C
:100C4000A80EB91E9FE6F92257FF09C0509540959E
:100C5000309521953F4F4F4F5F4FE0E8FE2ACA0184
:100C6000B901A1012AE030E00E943F07D82ED21836
:100C700040C0953729F41F2D1F7E2AE030E01DC0AB
:100C80001F2D197F9F3661F0903720F4983509F0B9
:100C9000ACC00FC0903739F0983709F0A6C004C037
:100CA00028E030E00AC0106114FD146020E130E05B
:100CB00004C014FD166020E132E017FF08C0F50102
:100CC000608171818281938144E050E008C0F50128
:100CD00080819181BC0180E090E042E050E0A40E70
:100CE000B51EA1010E943F07D82ED2188FE7F82E1B
:100CF000F122F6FE0BC05EEFF522D91438F4F4FEB3
:100D000007C0F2FC05C08FEEF82202C01D2D01C005
:100D1000192DF4FE0DC0FE01ED0DF11D8081803313
:100D200019F499EEF92208C01F5FF2FE05C003C056
:100D30008F2D867809F01F5F0F2DF3FC14C0F0FE95
:100D40000FC01E1510F09D2C0BC09D2C9E0C911AEF
:100D50001E2D06C080E290E0B3010E9413071F5FC2
:100D60001E15C0F304C01E1510F4E11A01C0EE24D4
:100D700004FF0FC080E390E0B3010E94130702FF5D
:100D80001DC001FD03C088E790E00EC088E590E03B
:100D90000BC0802F867891F001FF02C08BE201C06A
:100DA00080E2F7FC8DE290E0B3010E94130706C0D9
:100DB00080E390E0B3010E9413079A94D914C0F322
:100DC000DA94F101ED0DF11D808190E0B3010E94F4
:100DD0001307DD20A9F706C080E290E0B3010E946E
:100DE0001307EA94EE20C1F743CEF30166817781C1
:100DF000CB012B96E2E10C94B907FC010590615000
:100E000070400110D8F7809590958E0F9F1F089520
:100E1000FC016150704001900110D8F780959095C9
:100E20008E0F9F1F08950F931F93CF93DF938C0115
:100E3000EB018B8181FF1BC082FF0DC02E813F81A2
:100E40008C819D812817390764F4E881F981019329
:100E5000F983E88306C0E885F985802F0995892BF9
:100E600031F48E819F8101969F838E8302C00FEFA4
:100E70001FEFC801DF91CF911F910F910895FA01E3
:100E8000AA27283051F1203181F1E8946F936E7FC9
:100E90006E5F7F4F8F4F9F4FAF4FB1E03ED0B4E0BA
:100EA0003CD0670F781F891F9A1FA11D680F791FFB
:100EB0008A1F911DA11D6A0F711D811D911DA11D0C
:100EC00020D009F468943F912AE0269F112430191C
:100ED000305D3193DEF6CF010895462F4770405DB7
:100EE0004193B3E00FD0C9F7F6CF462F4F70405D66
:100EF0004A3318F0495D31FD4052419302D0A9F7C1
:100F0000EACFB4E0A6959795879577956795BA95BA
:100F1000C9F700976105710508959B01AC010A2E80
:100F200006945795479537952795BA95C9F7620F57
:100F3000731F841F951FA01D08952F923F924F92FB
:100F40005F926F927F928F929F92AF92BF92CF9259
:100F5000DF92EF92FF920F931F93CF93DF93CDB762
:100F6000DEB7CA1BDB0B0FB6F894DEBF0FBECDBFDA
:100F700009942A88398848885F846E847D848C84AB
:100F80009B84AA84B984C884DF80EE80FD800C81B4
:100F90001B81AA81B981CE0FD11D0FB6F894DEBF97
:0C0FA0000FBECDBFED010895F894FFCF07
:100FAC0028012D0131013A013501013201320303CF
:100FBC0003032533640000401454253364002020BF
:100FCC002020202020202000766572792064727900
:100FDC000061766700766572792064616D7000003F
:00000001FF
