:100000000C9434000C9451000C9451000C94510049
:100010000C9451000C9451000C9451000C9451001C
:100020000C9451000C9451000C9451000C9451000C
:100030000C9451000C9451000C9451000C945100FC
:100040000C9451000C9451000C9451000C945100EC
:100050000C9451000C9451000C9451000C945100DC
:100060000C9451000C94510011241FBECFEFD8E026
:10007000DEBFCDBF11E0A0E0B1E0E0E1F1E002C001
:1000800005900D92AA30B107D9F721E0AAE0B1E0BE
:1000900001C01D92A031B207E1F70E9453000C94F9
:1000A00086000C94000080E091E00E945A0090E0ED
:1000B00080E008950F931F93CF93DF93E0910C019D
:1000C000F0910D01238110E000E021FD0EC00FEF43
:1000D0001FEFC801DF91CF911F910F9108950995EE
:1000E000892B11F00FEF1FEFCE01EC018991609188
:1000F0000C0170910D01DB011896ED91FC918111BD
:10010000EECF8AE00995892B21F3E1CFF894FFCF58
:0A01100074657374696E67210000C6
:00000001FF
