:100000000C9434000C9449000C9449000C94490061
:100010000C9449000C9449000C9449000C9449003C
:100020000C9449000C9449000C9449000C9449002C
:100030000C9449000C9449000C9449000C9449001C
:100040000C9449000C9449000C9449000C9449000C
:100050000C9449000C9449000C9449000C944900FC
:100060000C9449000C94490011241FBECFEFD8E036
:10007000DEBFCDBF11E0A0E0B1E0E2ECF1E002C0F4
:1000800005900D92A233B107D9F70E94CE000C94CF
:10009000DF000C94000095B19C7F95B925B1982F95
:1000A0009370922B95B99BB193709BB99BB18C7F48
:1000B000892B8BB985B1837F85B92A9A2A9A2A9888
:1000C000089585B18C7F85B98BB183708BB984B16C
:1000D0008C7F84B98AB183708AB985B18B7E85B9EA
:1000E0002B9A2A9A82E08A95F1F700C089B12A9862
:1000F00087FDF7CF84B1836084B98AB18C6F8AB9E8
:1001000008952C980E944B000C94610084B1836088
:1001100084B98AB18C6F8AB984B18C6184B92C9806
:100120008FEF9BE60197F1F700C0000080E30E948B
:100130004B008FEF93E20197F1F700C0000080E3DE
:100140000E944B008DED90E00197F1F780E30E9453
:100150004B0086E69EE00197F1F7000088E30E94DD
:1001600081008FE00C9481008295880F880F807C3D
:10017000860F80680C9481002C9A0E944B000C948E
:100180006100CF93DF93EC018991811103C0DF916E
:10019000CF9108950E94BC00CE01F5CF0E94860049
:1001A00080E80E94810089E191E00E94C10080EC1A
:1001B0000E94810080E091E00E94C100FFCFF8948E
:0201C000FFCF6F
:1001C2003E3E205553432045453435394C203C3C76
:1001D2003738393031323334003E3E3E2061743399
:1001E20032382D342E63203C3C37383930313233AB
:0201F2003400D7
:00000001FF
