:100000000C944D000C9457000C9457000C9457001E
:100010000C9457000C9457000C9457000C94570004
:100020000C9457000C9457000C9457000C945700F4
:100030000C9457000C9457000C9457000C945700E4
:100040000C9457000C9457000C9457000C945700D4
:100050000C9457000C9457000C9457000C945700C4
:100060000C9457000C9457003E3E205553432045B6
:10007000453435394C203C3C373839303132333413
:10008000003E3E2061743332382D352E632068697E
:10009000203C3C3930313233340011241FBECFEFC5
:1000A000D8E0DEBFCDBF0E94DC000C94ED000C94C4
:1000B00000009BB19F709BB99BB1807F892B8BB94E
:1000C00085B1837F85B92A9A2A9A2A980895CF9371
:1000D000C82F0E9459008C2F8295807FCF910C945D
:1000E00059002C980E94670083E393E10197F1F790
:1000F00008958295880F880F807C860F80680C9405
:1001000071002C9A0E94670083E393E10197F1F755
:100110000895CF93DF93EC01FE0184912196811124
:1001200003C0DF91CF9108950E948100F5CFCF9356
:10013000DF93EC018991811103C0DF91CF91089584
:100140000E948100CE01F5CF8AB1806F8AB984B157
:100150008C6184B92C988FEF9FE80197F1F700C06C
:10016000000080E30E9459008FEF9FE20197F1F7B2
:1001700000C0000080E30E94590086E291E00197F0
:10018000F1F700C0000080E30E94590083E393E18F
:100190000197F1F780E20E94590083E393E1019710
:1001A000F1F788E20E9471008FE00C94710083E304
:1001B00093E10197F1F708950E94A40080E80E945E
:1001C000710081E890E00E94890080EC0E9471003B
:0E01D00088E690E00E948900FFCFF894FFCFF0
:00000001FF
